{
  "contractName": "ProductionStorage",
  "abi": [
    {
      "inputs": [],
      "name": "idCounter",
      "outputs": [
        {
          "internalType": "uint256",
          "name": "",
          "type": "uint256"
        }
      ],
      "stateMutability": "view",
      "type": "function",
      "constant": true
    },
    {
      "inputs": [
        {
          "internalType": "uint256",
          "name": "",
          "type": "uint256"
        },
        {
          "internalType": "uint256",
          "name": "",
          "type": "uint256"
        }
      ],
      "name": "productionGroups",
      "outputs": [
        {
          "internalType": "string",
          "name": "groupName",
          "type": "string"
        },
        {
          "internalType": "string",
          "name": "oreMined",
          "type": "string"
        }
      ],
      "stateMutability": "view",
      "type": "function",
      "constant": true
    },
    {
      "inputs": [
        {
          "internalType": "uint256",
          "name": "",
          "type": "uint256"
        }
      ],
      "name": "productions",
      "outputs": [
        {
          "internalType": "uint256",
          "name": "id",
          "type": "uint256"
        },
        {
          "internalType": "uint256",
          "name": "date",
          "type": "uint256"
        },
        {
          "internalType": "string",
          "name": "totalOreMined",
          "type": "string"
        },
        {
          "internalType": "string",
          "name": "month",
          "type": "string"
        },
        {
          "internalType": "string",
          "name": "year",
          "type": "string"
        },
        {
          "internalType": "address",
          "name": "sender",
          "type": "address"
        }
      ],
      "stateMutability": "view",
      "type": "function",
      "constant": true
    },
    {
      "inputs": [
        {
          "internalType": "string",
          "name": "_totalOreMined",
          "type": "string"
        },
        {
          "internalType": "string",
          "name": "_month",
          "type": "string"
        },
        {
          "internalType": "string",
          "name": "_year",
          "type": "string"
        },
        {
          "components": [
            {
              "internalType": "string",
              "name": "groupName",
              "type": "string"
            },
            {
              "internalType": "string",
              "name": "oreMined",
              "type": "string"
            }
          ],
          "internalType": "struct ProductionStorage.MinedPerGroup[]",
          "name": "_minedPerGroup",
          "type": "tuple[]"
        }
      ],
      "name": "addProduction",
      "outputs": [],
      "stateMutability": "nonpayable",
      "type": "function"
    },
    {
      "inputs": [
        {
          "internalType": "address",
          "name": "_sender",
          "type": "address"
        }
      ],
      "name": "getProductionsBySender",
      "outputs": [
        {
          "components": [
            {
              "internalType": "uint256",
              "name": "id",
              "type": "uint256"
            },
            {
              "internalType": "uint256",
              "name": "date",
              "type": "uint256"
            },
            {
              "internalType": "string",
              "name": "totalOreMined",
              "type": "string"
            },
            {
              "internalType": "string",
              "name": "month",
              "type": "string"
            },
            {
              "internalType": "string",
              "name": "year",
              "type": "string"
            },
            {
              "components": [
                {
                  "internalType": "string",
                  "name": "groupName",
                  "type": "string"
                },
                {
                  "internalType": "string",
                  "name": "oreMined",
                  "type": "string"
                }
              ],
              "internalType": "struct ProductionStorage.MinedPerGroup[]",
              "name": "minedpergroups",
              "type": "tuple[]"
            }
          ],
          "internalType": "struct ProductionStorage.ProductionDetails[]",
          "name": "",
          "type": "tuple[]"
        }
      ],
      "stateMutability": "view",
      "type": "function",
      "constant": true
    },
    {
      "inputs": [
        {
          "internalType": "uint256",
          "name": "_id",
          "type": "uint256"
        },
        {
          "internalType": "address",
          "name": "_sender",
          "type": "address"
        }
      ],
      "name": "getProductionByIdAndSender",
      "outputs": [
        {
          "components": [
            {
              "internalType": "uint256",
              "name": "id",
              "type": "uint256"
            },
            {
              "internalType": "uint256",
              "name": "date",
              "type": "uint256"
            },
            {
              "internalType": "string",
              "name": "totalOreMined",
              "type": "string"
            },
            {
              "internalType": "string",
              "name": "month",
              "type": "string"
            },
            {
              "internalType": "string",
              "name": "year",
              "type": "string"
            },
            {
              "components": [
                {
                  "internalType": "string",
                  "name": "groupName",
                  "type": "string"
                },
                {
                  "internalType": "string",
                  "name": "oreMined",
                  "type": "string"
                }
              ],
              "internalType": "struct ProductionStorage.MinedPerGroup[]",
              "name": "minedpergroups",
              "type": "tuple[]"
            }
          ],
          "internalType": "struct ProductionStorage.ProductionDetails",
          "name": "",
          "type": "tuple"
        }
      ],
      "stateMutability": "view",
      "type": "function",
      "constant": true
    }
  ],
  "bytecode": "0x608060405234801561001057600080fd5b50612094806100206000396000f3fe608060405234801561001057600080fd5b50600436106100625760003560e01c806315292f531461006757806381f220e41461009c57806383cd4492146100cd578063c26f2b49146100fd578063e11c07351461012d578063eb08ab2814610149575b600080fd5b610081600480360381019061007c9190611275565b610167565b60405161009396959493929190611382565b60405180910390f35b6100b660048036038101906100b191906113f8565b61036b565b6040516100c4929190611438565b60405180910390f35b6100e760048036038101906100e2919061149b565b6104bc565b6040516100f491906116d8565b60405180910390f35b610117600480360381019061011291906116fa565b610a08565b6040516101249190611887565b60405180910390f35b61014760048036038101906101429190611b56565b611011565b005b6101516111ef565b60405161015e9190611c2d565b60405180910390f35b6000818154811061017757600080fd5b90600052602060002090600602016000915090508060000154908060010154908060020180546101a690611c77565b80601f01602080910402602001604051908101604052809291908181526020018280546101d290611c77565b801561021f5780601f106101f45761010080835404028352916020019161021f565b820191906000526020600020905b81548152906001019060200180831161020257829003601f168201915b50505050509080600301805461023490611c77565b80601f016020809104026020016040519081016040528092919081815260200182805461026090611c77565b80156102ad5780601f10610282576101008083540402835291602001916102ad565b820191906000526020600020905b81548152906001019060200180831161029057829003601f168201915b5050505050908060040180546102c290611c77565b80601f01602080910402602001604051908101604052809291908181526020018280546102ee90611c77565b801561033b5780601f106103105761010080835404028352916020019161033b565b820191906000526020600020905b81548152906001019060200180831161031e57829003601f168201915b5050505050908060050160009054906101000a900473ffffffffffffffffffffffffffffffffffffffff16905086565b6001602052816000526040600020818154811061038757600080fd5b9060005260206000209060020201600091509150508060000180546103ab90611c77565b80601f01602080910402602001604051908101604052809291908181526020018280546103d790611c77565b80156104245780601f106103f957610100808354040283529160200191610424565b820191906000526020600020905b81548152906001019060200180831161040757829003601f168201915b50505050509080600101805461043990611c77565b80601f016020809104026020016040519081016040528092919081815260200182805461046590611c77565b80156104b25780601f10610487576101008083540402835291602001916104b2565b820191906000526020600020905b81548152906001019060200180831161049557829003601f168201915b5050505050905082565b6104c46111f5565b60005b6000805490508110156109c65783600082815481106104e9576104e8611ca8565b5b90600052602060002090600602016000015414801561057857508273ffffffffffffffffffffffffffffffffffffffff166000828154811061052e5761052d611ca8565b5b906000526020600020906006020160050160009054906101000a900473ffffffffffffffffffffffffffffffffffffffff1673ffffffffffffffffffffffffffffffffffffffff16145b156109b3576040518060c001604052806000838154811061059c5761059b611ca8565b5b9060005260206000209060060201600001548152602001600083815481106105c7576105c6611ca8565b5b9060005260206000209060060201600101548152602001600083815481106105f2576105f1611ca8565b5b9060005260206000209060060201600201805461060e90611c77565b80601f016020809104026020016040519081016040528092919081815260200182805461063a90611c77565b80156106875780601f1061065c57610100808354040283529160200191610687565b820191906000526020600020905b81548152906001019060200180831161066a57829003601f168201915b50505050508152602001600083815481106106a5576106a4611ca8565b5b906000526020600020906006020160030180546106c190611c77565b80601f01602080910402602001604051908101604052809291908181526020018280546106ed90611c77565b801561073a5780601f1061070f5761010080835404028352916020019161073a565b820191906000526020600020905b81548152906001019060200180831161071d57829003601f168201915b505050505081526020016000838154811061075857610757611ca8565b5b9060005260206000209060060201600401805461077490611c77565b80601f01602080910402602001604051908101604052809291908181526020018280546107a090611c77565b80156107ed5780601f106107c2576101008083540402835291602001916107ed565b820191906000526020600020905b8154815290600101906020018083116107d057829003601f168201915b505050505081526020016001600080858154811061080e5761080d611ca8565b5b9060005260206000209060060201600001548152602001908152602001600020805480602002602001604051908101604052809291908181526020016000905b828210156109a4578382906000526020600020906002020160405180604001604052908160008201805461088190611c77565b80601f01602080910402602001604051908101604052809291908181526020018280546108ad90611c77565b80156108fa5780601f106108cf576101008083540402835291602001916108fa565b820191906000526020600020905b8154815290600101906020018083116108dd57829003601f168201915b5050505050815260200160018201805461091390611c77565b80601f016020809104026020016040519081016040528092919081815260200182805461093f90611c77565b801561098c5780601f106109615761010080835404028352916020019161098c565b820191906000526020600020905b81548152906001019060200180831161096f57829003601f168201915b5050505050815250508152602001906001019061084e565b50505050815250915050610a02565b80806109be90611d06565b9150506104c7565b506040517f08c379a00000000000000000000000000000000000000000000000000000000081526004016109f990611dc0565b60405180910390fd5b92915050565b60606000805b600080549050811015610ab5578373ffffffffffffffffffffffffffffffffffffffff1660008281548110610a4657610a45611ca8565b5b906000526020600020906006020160050160009054906101000a900473ffffffffffffffffffffffffffffffffffffffff1673ffffffffffffffffffffffffffffffffffffffff1603610aa2578180610a9e90611d06565b9250505b8080610aad90611d06565b915050610a0e565b5060008167ffffffffffffffff811115610ad257610ad16118b3565b5b604051908082528060200260200182016040528015610b0b57816020015b610af86111f5565b815260200190600190039081610af05790505b5090506000805b600080549050811015611005578573ffffffffffffffffffffffffffffffffffffffff1660008281548110610b4a57610b49611ca8565b5b906000526020600020906006020160050160009054906101000a900473ffffffffffffffffffffffffffffffffffffffff1673ffffffffffffffffffffffffffffffffffffffff1603610ff2576040518060c0016040528060008381548110610bb657610bb5611ca8565b5b906000526020600020906006020160000154815260200160008381548110610be157610be0611ca8565b5b906000526020600020906006020160010154815260200160008381548110610c0c57610c0b611ca8565b5b90600052602060002090600602016002018054610c2890611c77565b80601f0160208091040260200160405190810160405280929190818152602001828054610c5490611c77565b8015610ca15780601f10610c7657610100808354040283529160200191610ca1565b820191906000526020600020905b815481529060010190602001808311610c8457829003601f168201915b5050505050815260200160008381548110610cbf57610cbe611ca8565b5b90600052602060002090600602016003018054610cdb90611c77565b80601f0160208091040260200160405190810160405280929190818152602001828054610d0790611c77565b8015610d545780601f10610d2957610100808354040283529160200191610d54565b820191906000526020600020905b815481529060010190602001808311610d3757829003601f168201915b5050505050815260200160008381548110610d7257610d71611ca8565b5b90600052602060002090600602016004018054610d8e90611c77565b80601f0160208091040260200160405190810160405280929190818152602001828054610dba90611c77565b8015610e075780601f10610ddc57610100808354040283529160200191610e07565b820191906000526020600020905b815481529060010190602001808311610dea57829003601f168201915b5050505050815260200160016000808581548110610e2857610e27611ca8565b5b9060005260206000209060060201600001548152602001908152602001600020805480602002602001604051908101604052809291908181526020016000905b82821015610fbe5783829060005260206000209060020201604051806040016040529081600082018054610e9b90611c77565b80601f0160208091040260200160405190810160405280929190818152602001828054610ec790611c77565b8015610f145780601f10610ee957610100808354040283529160200191610f14565b820191906000526020600020905b815481529060010190602001808311610ef757829003601f168201915b50505050508152602001600182018054610f2d90611c77565b80601f0160208091040260200160405190810160405280929190818152602001828054610f5990611c77565b8015610fa65780601f10610f7b57610100808354040283529160200191610fa6565b820191906000526020600020905b815481529060010190602001808311610f8957829003601f168201915b50505050508152505081526020019060010190610e68565b50505050815250838381518110610fd857610fd7611ca8565b5b60200260200101819052508180610fee90611d06565b9250505b8080610ffd90611d06565b915050610b12565b50819350505050919050565b600060026000815461102290611d06565b9190508190559050600060016000838152602001908152602001600020905060005b83518110156110d3578184828151811061106157611060611ca8565b5b6020026020010151908060018154018082558091505060019003906000526020600020906002020160009091909190915060008201518160000190816110a79190611f8c565b5060208201518160010190816110bd9190611f8c565b50505080806110cb90611d06565b915050611044565b5060006040518060c001604052808481526020014281526020018881526020018781526020018681526020013373ffffffffffffffffffffffffffffffffffffffff1681525090506000819080600181540180825580915050600190039060005260206000209060060201600090919091909150600082015181600001556020820151816001015560408201518160020190816111709190611f8c565b5060608201518160030190816111869190611f8c565b50608082015181600401908161119c9190611f8c565b5060a08201518160050160006101000a81548173ffffffffffffffffffffffffffffffffffffffff021916908373ffffffffffffffffffffffffffffffffffffffff160217905550505050505050505050565b60025481565b6040518060c001604052806000815260200160008152602001606081526020016060815260200160608152602001606081525090565b6000604051905090565b600080fd5b600080fd5b6000819050919050565b6112528161123f565b811461125d57600080fd5b50565b60008135905061126f81611249565b92915050565b60006020828403121561128b5761128a611235565b5b600061129984828501611260565b91505092915050565b6112ab8161123f565b82525050565b600081519050919050565b600082825260208201905092915050565b60005b838110156112eb5780820151818401526020810190506112d0565b60008484015250505050565b6000601f19601f8301169050919050565b6000611313826112b1565b61131d81856112bc565b935061132d8185602086016112cd565b611336816112f7565b840191505092915050565b600073ffffffffffffffffffffffffffffffffffffffff82169050919050565b600061136c82611341565b9050919050565b61137c81611361565b82525050565b600060c08201905061139760008301896112a2565b6113a460208301886112a2565b81810360408301526113b68187611308565b905081810360608301526113ca8186611308565b905081810360808301526113de8185611308565b90506113ed60a0830184611373565b979650505050505050565b6000806040838503121561140f5761140e611235565b5b600061141d85828601611260565b925050602061142e85828601611260565b9150509250929050565b600060408201905081810360008301526114528185611308565b905081810360208301526114668184611308565b90509392505050565b61147881611361565b811461148357600080fd5b50565b6000813590506114958161146f565b92915050565b600080604083850312156114b2576114b1611235565b5b60006114c085828601611260565b92505060206114d185828601611486565b9150509250929050565b6114e48161123f565b82525050565b600082825260208201905092915050565b6000611506826112b1565b61151081856114ea565b93506115208185602086016112cd565b611529816112f7565b840191505092915050565b600081519050919050565b600082825260208201905092915050565b6000819050602082019050919050565b6000604083016000830151848203600086015261157d82826114fb565b9150506020830151848203602086015261159782826114fb565b9150508091505092915050565b60006115b08383611560565b905092915050565b6000602082019050919050565b60006115d082611534565b6115da818561153f565b9350836020820285016115ec85611550565b8060005b85811015611628578484038952815161160985826115a4565b9450611614836115b8565b925060208a019950506001810190506115f0565b50829750879550505050505092915050565b600060c08301600083015161165260008601826114db565b50602083015161166560208601826114db565b506040830151848203604086015261167d82826114fb565b9150506060830151848203606086015261169782826114fb565b915050608083015184820360808601526116b182826114fb565b91505060a083015184820360a08601526116cb82826115c5565b9150508091505092915050565b600060208201905081810360008301526116f2818461163a565b905092915050565b6000602082840312156117105761170f611235565b5b600061171e84828501611486565b91505092915050565b600081519050919050565b600082825260208201905092915050565b6000819050602082019050919050565b600060c08301600083015161176b60008601826114db565b50602083015161177e60208601826114db565b506040830151848203604086015261179682826114fb565b915050606083015184820360608601526117b082826114fb565b915050608083015184820360808601526117ca82826114fb565b91505060a083015184820360a08601526117e482826115c5565b9150508091505092915050565b60006117fd8383611753565b905092915050565b6000602082019050919050565b600061181d82611727565b6118278185611732565b93508360208202850161183985611743565b8060005b85811015611875578484038952815161185685826117f1565b945061186183611805565b925060208a0199505060018101905061183d565b50829750879550505050505092915050565b600060208201905081810360008301526118a18184611812565b905092915050565b600080fd5b600080fd5b7f4e487b7100000000000000000000000000000000000000000000000000000000600052604160045260246000fd5b6118eb826112f7565b810181811067ffffffffffffffff8211171561190a576119096118b3565b5b80604052505050565b600061191d61122b565b905061192982826118e2565b919050565b600067ffffffffffffffff821115611949576119486118b3565b5b611952826112f7565b9050602081019050919050565b82818337600083830152505050565b600061198161197c8461192e565b611913565b90508281526020810184848401111561199d5761199c6118ae565b5b6119a884828561195f565b509392505050565b600082601f8301126119c5576119c46118a9565b5b81356119d584826020860161196e565b91505092915050565b600067ffffffffffffffff8211156119f9576119f86118b3565b5b602082029050602081019050919050565b600080fd5b600080fd5b600080fd5b600060408284031215611a2f57611a2e611a0f565b5b611a396040611913565b9050600082013567ffffffffffffffff811115611a5957611a58611a14565b5b611a65848285016119b0565b600083015250602082013567ffffffffffffffff811115611a8957611a88611a14565b5b611a95848285016119b0565b60208301525092915050565b6000611ab4611aaf846119de565b611913565b90508083825260208201905060208402830185811115611ad757611ad6611a0a565b5b835b81811015611b1e57803567ffffffffffffffff811115611afc57611afb6118a9565b5b808601611b098982611a19565b85526020850194505050602081019050611ad9565b5050509392505050565b600082601f830112611b3d57611b3c6118a9565b5b8135611b4d848260208601611aa1565b91505092915050565b60008060008060808587031215611b7057611b6f611235565b5b600085013567ffffffffffffffff811115611b8e57611b8d61123a565b5b611b9a878288016119b0565b945050602085013567ffffffffffffffff811115611bbb57611bba61123a565b5b611bc7878288016119b0565b935050604085013567ffffffffffffffff811115611be857611be761123a565b5b611bf4878288016119b0565b925050606085013567ffffffffffffffff811115611c1557611c1461123a565b5b611c2187828801611b28565b91505092959194509250565b6000602082019050611c4260008301846112a2565b92915050565b7f4e487b7100000000000000000000000000000000000000000000000000000000600052602260045260246000fd5b60006002820490506001821680611c8f57607f821691505b602082108103611ca257611ca1611c48565b5b50919050565b7f4e487b7100000000000000000000000000000000000000000000000000000000600052603260045260246000fd5b7f4e487b7100000000000000000000000000000000000000000000000000000000600052601160045260246000fd5b6000611d118261123f565b91507fffffffffffffffffffffffffffffffffffffffffffffffffffffffffffffffff8203611d4357611d42611cd7565b5b600182019050919050565b7f4e6f2070726f64756374696f6e20666f756e642077697468207468652067697660008201527f656e20696420616e642073656e64657200000000000000000000000000000000602082015250565b6000611daa6030836112bc565b9150611db582611d4e565b604082019050919050565b60006020820190508181036000830152611dd981611d9d565b9050919050565b60008190508160005260206000209050919050565b60006020601f8301049050919050565b600082821b905092915050565b600060088302611e427fffffffffffffffffffffffffffffffffffffffffffffffffffffffffffffffff82611e05565b611e4c8683611e05565b95508019841693508086168417925050509392505050565b6000819050919050565b6000611e89611e84611e7f8461123f565b611e64565b61123f565b9050919050565b6000819050919050565b611ea383611e6e565b611eb7611eaf82611e90565b848454611e12565b825550505050565b600090565b611ecc611ebf565b611ed7818484611e9a565b505050565b5b81811015611efb57611ef0600082611ec4565b600181019050611edd565b5050565b601f821115611f4057611f1181611de0565b611f1a84611df5565b81016020851015611f29578190505b611f3d611f3585611df5565b830182611edc565b50505b505050565b600082821c905092915050565b6000611f6360001984600802611f45565b1980831691505092915050565b6000611f7c8383611f52565b9150826002028217905092915050565b611f95826112b1565b67ffffffffffffffff811115611fae57611fad6118b3565b5b611fb88254611c77565b611fc3828285611eff565b600060209050601f831160018114611ff65760008415611fe4578287015190505b611fee8582611f70565b865550612056565b601f19841661200486611de0565b60005b8281101561202c57848901518255600182019150602085019450602081019050612007565b868310156120495784890151612045601f891682611f52565b8355505b6001600288020188555050505b50505050505056fea26469706673582212208e67ada95efd7748205eba83860762b5d1810fe4a397843f353a636dfef33f9b64736f6c63430008130033",
  "immutableReferences": {},
  "source": "// SPDX-License-Identifier: MIT\r\npragma solidity >=0.8.19 <0.9.0;\r\n\r\ncontract ProductionStorage{\r\n    struct MinedPerGroup{\r\n        string groupName;\r\n        string oreMined;\r\n    }\r\n\r\n    struct Production {\r\n        uint256 id;\r\n        uint256 date;\r\n        string totalOreMined;\r\n        string month;\r\n        string year;\r\n        address sender;\r\n    }\r\n\r\n    Production[] public productions;\r\n    mapping(uint256 => MinedPerGroup[]) public productionGroups;\r\n    uint256 public idCounter;\r\n\r\n    struct ProductionDetails {\r\n        uint256 id;\r\n        uint256 date;\r\n        string totalOreMined;\r\n        string month;\r\n        string year;\r\n        MinedPerGroup[] minedpergroups;\r\n    }\r\n\r\n\r\n   function addProduction(\r\n        string memory _totalOreMined, \r\n        string memory _month,\r\n        string memory _year,\r\n        MinedPerGroup[] memory _minedPerGroup\r\n        ) public {\r\n        uint256 _id = ++idCounter;\r\n\r\n        // Copy the MinedPerGroup data from memory to storage\r\n        MinedPerGroup[] storage minedGroups = productionGroups[_id];\r\n        for (uint256 i = 0; i < _minedPerGroup.length; i++) {\r\n            minedGroups.push(_minedPerGroup[i]);\r\n        }\r\n\r\n        Production memory newProduction = Production({\r\n            id: _id,\r\n            date: block.timestamp,\r\n            totalOreMined: _totalOreMined,\r\n            month: _month,\r\n            year: _year,\r\n            sender: msg.sender\r\n        });\r\n\r\n        productions.push(newProduction);\r\n        }\r\n\r\n\r\n\r\n    function getProductionsBySender(address _sender)\r\n        public\r\n        view\r\n        returns (ProductionDetails[] memory)\r\n    {\r\n        // Count the number of productions by the given sender\r\n        uint256 count = 0;\r\n        for (uint256 i = 0; i < productions.length; i++) {\r\n            if (productions[i].sender == _sender) {\r\n                count++;\r\n            }\r\n        }\r\n\r\n        // Create an array to store productions by the given sender\r\n        ProductionDetails[] memory senderProductions = new ProductionDetails[](count);\r\n\r\n        // Populate the array with productions by the given sender\r\n        uint256 index = 0;\r\n        for (uint256 i = 0; i < productions.length; i++) {\r\n            if (productions[i].sender == _sender) {\r\n                senderProductions[index] = ProductionDetails({\r\n                    id: productions[i].id,\r\n                    date: productions[i].date,\r\n                    totalOreMined: productions[i].totalOreMined,\r\n                    month: productions[i].month,\r\n                    year: productions[i].year,\r\n                    minedpergroups: productionGroups[productions[i].id]\r\n                });\r\n                index++;\r\n            }\r\n        }\r\n\r\n        return senderProductions;\r\n    }\r\n\r\n\r\n    function getProductionByIdAndSender(uint256 _id, address _sender)\r\n        public\r\n        view\r\n        returns (ProductionDetails memory)\r\n    {\r\n        // Loop through all productions\r\n        for (uint256 i = 0; i < productions.length; i++) {\r\n            // Check if the id and sender match the provided id and sender\r\n            if (productions[i].id == _id && productions[i].sender == _sender) {\r\n                // Return the matching production\r\n                return ProductionDetails({\r\n                    id: productions[i].id,\r\n                    date: productions[i].date,\r\n                    totalOreMined: productions[i].totalOreMined,\r\n                    month: productions[i].month,\r\n                    year: productions[i].year,\r\n                    minedpergroups: productionGroups[productions[i].id]\r\n                });\r\n            }\r\n        }\r\n\r\n        // If no matching production was found, revert the transaction\r\n        revert(\"No production found with the given id and sender\");\r\n    }\r\n\r\n\r\n\r\n}",
  "sourcePath": "C:\\Users\\franc\\OneDrive\\Documents\\BlockchainXMining\\contracts\\ProductionStorage.sol",
  "compiler": {
    "name": "solc",
    "version": "0.8.19+commit.7dd6d404.Emscripten.clang"
  },
  "schemaVersion": "3.4.16",
  "updatedAt": "2023-12-27T01:55:34.105Z",
  "networkType": "ethereum",
  "devdoc": {
    "kind": "dev",
    "methods": {},
    "version": 1
  },
  "userdoc": {
    "kind": "user",
    "methods": {},
    "version": 1
  }
}