{
  "contractName": "ProductionStorage",
  "abi": [
    {
      "inputs": [],
      "name": "idCounter",
      "outputs": [
        {
          "internalType": "uint256",
          "name": "",
          "type": "uint256"
        }
      ],
      "stateMutability": "view",
      "type": "function",
      "constant": true
    },
    {
      "inputs": [
        {
          "internalType": "uint256",
          "name": "",
          "type": "uint256"
        },
        {
          "internalType": "uint256",
          "name": "",
          "type": "uint256"
        }
      ],
      "name": "productionGroups",
      "outputs": [
        {
          "internalType": "string",
          "name": "groupName",
          "type": "string"
        },
        {
          "internalType": "string",
          "name": "oreMined",
          "type": "string"
        }
      ],
      "stateMutability": "view",
      "type": "function",
      "constant": true
    },
    {
      "inputs": [
        {
          "internalType": "uint256",
          "name": "",
          "type": "uint256"
        }
      ],
      "name": "productions",
      "outputs": [
        {
          "internalType": "uint256",
          "name": "id",
          "type": "uint256"
        },
        {
          "internalType": "string",
          "name": "email",
          "type": "string"
        },
        {
          "internalType": "uint256",
          "name": "date",
          "type": "uint256"
        },
        {
          "internalType": "string",
          "name": "totalOreMined",
          "type": "string"
        },
        {
          "internalType": "string",
          "name": "month",
          "type": "string"
        },
        {
          "internalType": "string",
          "name": "year",
          "type": "string"
        },
        {
          "internalType": "address",
          "name": "sender",
          "type": "address"
        }
      ],
      "stateMutability": "view",
      "type": "function",
      "constant": true
    },
    {
      "inputs": [
        {
          "internalType": "string",
          "name": "_email",
          "type": "string"
        },
        {
          "internalType": "string",
          "name": "_totalOreMined",
          "type": "string"
        },
        {
          "internalType": "string",
          "name": "_month",
          "type": "string"
        },
        {
          "internalType": "string",
          "name": "_year",
          "type": "string"
        },
        {
          "components": [
            {
              "internalType": "string",
              "name": "groupName",
              "type": "string"
            },
            {
              "internalType": "string",
              "name": "oreMined",
              "type": "string"
            }
          ],
          "internalType": "struct ProductionStorage.MinedPerGroup[]",
          "name": "_minedPerGroup",
          "type": "tuple[]"
        }
      ],
      "name": "addProduction",
      "outputs": [],
      "stateMutability": "nonpayable",
      "type": "function"
    },
    {
      "inputs": [],
      "name": "getAllProductions",
      "outputs": [
        {
          "components": [
            {
              "internalType": "uint256",
              "name": "id",
              "type": "uint256"
            },
            {
              "internalType": "uint256",
              "name": "date",
              "type": "uint256"
            },
            {
              "internalType": "string",
              "name": "totalOreMined",
              "type": "string"
            },
            {
              "internalType": "string",
              "name": "month",
              "type": "string"
            },
            {
              "internalType": "string",
              "name": "year",
              "type": "string"
            },
            {
              "internalType": "address",
              "name": "sender",
              "type": "address"
            },
            {
              "components": [
                {
                  "internalType": "string",
                  "name": "groupName",
                  "type": "string"
                },
                {
                  "internalType": "string",
                  "name": "oreMined",
                  "type": "string"
                }
              ],
              "internalType": "struct ProductionStorage.MinedPerGroup[]",
              "name": "minedpergroups",
              "type": "tuple[]"
            }
          ],
          "internalType": "struct ProductionStorage.ProductionDetails[]",
          "name": "",
          "type": "tuple[]"
        }
      ],
      "stateMutability": "view",
      "type": "function",
      "constant": true
    },
    {
      "inputs": [
        {
          "internalType": "uint256",
          "name": "_id",
          "type": "uint256"
        }
      ],
      "name": "getProductionById",
      "outputs": [
        {
          "components": [
            {
              "internalType": "uint256",
              "name": "id",
              "type": "uint256"
            },
            {
              "internalType": "uint256",
              "name": "date",
              "type": "uint256"
            },
            {
              "internalType": "string",
              "name": "totalOreMined",
              "type": "string"
            },
            {
              "internalType": "string",
              "name": "month",
              "type": "string"
            },
            {
              "internalType": "string",
              "name": "year",
              "type": "string"
            },
            {
              "internalType": "address",
              "name": "sender",
              "type": "address"
            },
            {
              "components": [
                {
                  "internalType": "string",
                  "name": "groupName",
                  "type": "string"
                },
                {
                  "internalType": "string",
                  "name": "oreMined",
                  "type": "string"
                }
              ],
              "internalType": "struct ProductionStorage.MinedPerGroup[]",
              "name": "minedpergroups",
              "type": "tuple[]"
            }
          ],
          "internalType": "struct ProductionStorage.ProductionDetails",
          "name": "",
          "type": "tuple"
        }
      ],
      "stateMutability": "view",
      "type": "function",
      "constant": true
    },
    {
      "inputs": [
        {
          "internalType": "address",
          "name": "_sender",
          "type": "address"
        }
      ],
      "name": "getProductionsBySender",
      "outputs": [
        {
          "components": [
            {
              "internalType": "uint256",
              "name": "id",
              "type": "uint256"
            },
            {
              "internalType": "uint256",
              "name": "date",
              "type": "uint256"
            },
            {
              "internalType": "string",
              "name": "totalOreMined",
              "type": "string"
            },
            {
              "internalType": "string",
              "name": "month",
              "type": "string"
            },
            {
              "internalType": "string",
              "name": "year",
              "type": "string"
            },
            {
              "internalType": "address",
              "name": "sender",
              "type": "address"
            },
            {
              "components": [
                {
                  "internalType": "string",
                  "name": "groupName",
                  "type": "string"
                },
                {
                  "internalType": "string",
                  "name": "oreMined",
                  "type": "string"
                }
              ],
              "internalType": "struct ProductionStorage.MinedPerGroup[]",
              "name": "minedpergroups",
              "type": "tuple[]"
            }
          ],
          "internalType": "struct ProductionStorage.ProductionDetails[]",
          "name": "",
          "type": "tuple[]"
        }
      ],
      "stateMutability": "view",
      "type": "function",
      "constant": true
    },
    {
      "inputs": [
        {
          "internalType": "uint256",
          "name": "_id",
          "type": "uint256"
        },
        {
          "internalType": "address",
          "name": "_sender",
          "type": "address"
        }
      ],
      "name": "getProductionByIdAndSender",
      "outputs": [
        {
          "components": [
            {
              "internalType": "uint256",
              "name": "id",
              "type": "uint256"
            },
            {
              "internalType": "uint256",
              "name": "date",
              "type": "uint256"
            },
            {
              "internalType": "string",
              "name": "totalOreMined",
              "type": "string"
            },
            {
              "internalType": "string",
              "name": "month",
              "type": "string"
            },
            {
              "internalType": "string",
              "name": "year",
              "type": "string"
            },
            {
              "internalType": "address",
              "name": "sender",
              "type": "address"
            },
            {
              "components": [
                {
                  "internalType": "string",
                  "name": "groupName",
                  "type": "string"
                },
                {
                  "internalType": "string",
                  "name": "oreMined",
                  "type": "string"
                }
              ],
              "internalType": "struct ProductionStorage.MinedPerGroup[]",
              "name": "minedpergroups",
              "type": "tuple[]"
            }
          ],
          "internalType": "struct ProductionStorage.ProductionDetails",
          "name": "",
          "type": "tuple"
        }
      ],
      "stateMutability": "view",
      "type": "function",
      "constant": true
    },
    {
      "inputs": [
        {
          "internalType": "string",
          "name": "_email",
          "type": "string"
        }
      ],
      "name": "getProductionsByEmail",
      "outputs": [
        {
          "components": [
            {
              "internalType": "uint256",
              "name": "id",
              "type": "uint256"
            },
            {
              "internalType": "uint256",
              "name": "date",
              "type": "uint256"
            },
            {
              "internalType": "string",
              "name": "totalOreMined",
              "type": "string"
            },
            {
              "internalType": "string",
              "name": "month",
              "type": "string"
            },
            {
              "internalType": "string",
              "name": "year",
              "type": "string"
            },
            {
              "internalType": "address",
              "name": "sender",
              "type": "address"
            },
            {
              "components": [
                {
                  "internalType": "string",
                  "name": "groupName",
                  "type": "string"
                },
                {
                  "internalType": "string",
                  "name": "oreMined",
                  "type": "string"
                }
              ],
              "internalType": "struct ProductionStorage.MinedPerGroup[]",
              "name": "minedpergroups",
              "type": "tuple[]"
            }
          ],
          "internalType": "struct ProductionStorage.ProductionDetails[]",
          "name": "",
          "type": "tuple[]"
        }
      ],
      "stateMutability": "view",
      "type": "function",
      "constant": true
    }
  ],
  "bytecode": "0x608060405234801561001057600080fd5b506135c5806100206000396000f3fe608060405234801561001057600080fd5b50600436106100935760003560e01c806383cd44921161006657806383cd44921461014b578063c26f2b491461017b578063e844b94e146101ab578063eb08ab28146101db578063f3eadf4f146101f957610093565b80630503bd381461009857806315292f53146100b45780635c5d05a7146100ea57806381f220e41461011a575b600080fd5b6100b260048036038101906100ad919061296b565b610217565b005b6100ce60048036038101906100c99190612aa8565b610412565b6040516100e19796959493929190612ba4565b60405180910390f35b61010460048036038101906100ff9190612aa8565b6106a4565b6040516101119190612e4e565b60405180910390f35b610134600480360381019061012f9190612e70565b610bd3565b604051610142929190612eb0565b60405180910390f35b61016560048036038101906101609190612f13565b610d24565b6040516101729190612e4e565b60405180910390f35b61019560048036038101906101909190612f53565b6112d1565b6040516101a291906130f3565b60405180910390f35b6101c560048036038101906101c09190613115565b61193b565b6040516101d291906130f3565b60405180910390f35b6101e361202d565b6040516101f0919061315e565b60405180910390f35b610201612033565b60405161020e91906130f3565b60405180910390f35b6000600260008154610228906131a8565b9190508190559050600060016000838152602001908152602001600020905060005b83518110156102d95781848281518110610267576102666131f0565b5b6020026020010151908060018154018082558091505060019003906000526020600020906002020160009091909190915060008201518160000190816102ad919061342b565b5060208201518160010190816102c3919061342b565b50505080806102d1906131a8565b91505061024a565b5060006040518060e001604052808481526020018981526020014281526020018881526020018781526020018681526020013373ffffffffffffffffffffffffffffffffffffffff1681525090506000819080600181540180825580915050600190039060005260206000209060070201600090919091909150600082015181600001556020820151816001019081610372919061342b565b50604082015181600201556060820151816003019081610392919061342b565b5060808201518160040190816103a8919061342b565b5060a08201518160050190816103be919061342b565b5060c08201518160060160006101000a81548173ffffffffffffffffffffffffffffffffffffffff021916908373ffffffffffffffffffffffffffffffffffffffff16021790555050505050505050505050565b6000818154811061042257600080fd5b906000526020600020906007020160009150905080600001549080600101805461044b9061324e565b80601f01602080910402602001604051908101604052809291908181526020018280546104779061324e565b80156104c45780601f10610499576101008083540402835291602001916104c4565b820191906000526020600020905b8154815290600101906020018083116104a757829003601f168201915b5050505050908060020154908060030180546104df9061324e565b80601f016020809104026020016040519081016040528092919081815260200182805461050b9061324e565b80156105585780601f1061052d57610100808354040283529160200191610558565b820191906000526020600020905b81548152906001019060200180831161053b57829003601f168201915b50505050509080600401805461056d9061324e565b80601f01602080910402602001604051908101604052809291908181526020018280546105999061324e565b80156105e65780601f106105bb576101008083540402835291602001916105e6565b820191906000526020600020905b8154815290600101906020018083116105c957829003601f168201915b5050505050908060050180546105fb9061324e565b80601f01602080910402602001604051908101604052809291908181526020018280546106279061324e565b80156106745780601f1061064957610100808354040283529160200191610674565b820191906000526020600020905b81548152906001019060200180831161065757829003601f168201915b5050505050908060060160009054906101000a900473ffffffffffffffffffffffffffffffffffffffff16905087565b6106ac612646565b60005b600080549050811015610b925782600082815481106106d1576106d06131f0565b5b90600052602060002090600702016000015403610b7f576040518060e0016040528060008381548110610707576107066131f0565b5b906000526020600020906007020160000154815260200160008381548110610732576107316131f0565b5b90600052602060002090600702016002015481526020016000838154811061075d5761075c6131f0565b5b906000526020600020906007020160030180546107799061324e565b80601f01602080910402602001604051908101604052809291908181526020018280546107a59061324e565b80156107f25780601f106107c7576101008083540402835291602001916107f2565b820191906000526020600020905b8154815290600101906020018083116107d557829003601f168201915b50505050508152602001600083815481106108105761080f6131f0565b5b9060005260206000209060070201600401805461082c9061324e565b80601f01602080910402602001604051908101604052809291908181526020018280546108589061324e565b80156108a55780601f1061087a576101008083540402835291602001916108a5565b820191906000526020600020905b81548152906001019060200180831161088857829003601f168201915b50505050508152602001600083815481106108c3576108c26131f0565b5b906000526020600020906007020160050180546108df9061324e565b80601f016020809104026020016040519081016040528092919081815260200182805461090b9061324e565b80156109585780601f1061092d57610100808354040283529160200191610958565b820191906000526020600020905b81548152906001019060200180831161093b57829003601f168201915b5050505050815260200160008381548110610976576109756131f0565b5b906000526020600020906007020160060160009054906101000a900473ffffffffffffffffffffffffffffffffffffffff1673ffffffffffffffffffffffffffffffffffffffff168152602001600160008085815481106109da576109d96131f0565b5b9060005260206000209060070201600001548152602001908152602001600020805480602002602001604051908101604052809291908181526020016000905b82821015610b705783829060005260206000209060020201604051806040016040529081600082018054610a4d9061324e565b80601f0160208091040260200160405190810160405280929190818152602001828054610a799061324e565b8015610ac65780601f10610a9b57610100808354040283529160200191610ac6565b820191906000526020600020905b815481529060010190602001808311610aa957829003601f168201915b50505050508152602001600182018054610adf9061324e565b80601f0160208091040260200160405190810160405280929190818152602001828054610b0b9061324e565b8015610b585780601f10610b2d57610100808354040283529160200191610b58565b820191906000526020600020905b815481529060010190602001808311610b3b57829003601f168201915b50505050508152505081526020019060010190610a1a565b50505050815250915050610bce565b8080610b8a906131a8565b9150506106af565b506040517f08c379a0000000000000000000000000000000000000000000000000000000008152600401610bc59061356f565b60405180910390fd5b919050565b60016020528160005260406000208181548110610bef57600080fd5b906000526020600020906002020160009150915050806000018054610c139061324e565b80601f0160208091040260200160405190810160405280929190818152602001828054610c3f9061324e565b8015610c8c5780601f10610c6157610100808354040283529160200191610c8c565b820191906000526020600020905b815481529060010190602001808311610c6f57829003601f168201915b505050505090806001018054610ca19061324e565b80601f0160208091040260200160405190810160405280929190818152602001828054610ccd9061324e565b8015610d1a5780601f10610cef57610100808354040283529160200191610d1a565b820191906000526020600020905b815481529060010190602001808311610cfd57829003601f168201915b5050505050905082565b610d2c612646565b60005b60008054905081101561128f578360008281548110610d5157610d506131f0565b5b906000526020600020906007020160000154148015610de057508273ffffffffffffffffffffffffffffffffffffffff1660008281548110610d9657610d956131f0565b5b906000526020600020906007020160060160009054906101000a900473ffffffffffffffffffffffffffffffffffffffff1673ffffffffffffffffffffffffffffffffffffffff16145b1561127c576040518060e0016040528060008381548110610e0457610e036131f0565b5b906000526020600020906007020160000154815260200160008381548110610e2f57610e2e6131f0565b5b906000526020600020906007020160020154815260200160008381548110610e5a57610e596131f0565b5b90600052602060002090600702016003018054610e769061324e565b80601f0160208091040260200160405190810160405280929190818152602001828054610ea29061324e565b8015610eef5780601f10610ec457610100808354040283529160200191610eef565b820191906000526020600020905b815481529060010190602001808311610ed257829003601f168201915b5050505050815260200160008381548110610f0d57610f0c6131f0565b5b90600052602060002090600702016004018054610f299061324e565b80601f0160208091040260200160405190810160405280929190818152602001828054610f559061324e565b8015610fa25780601f10610f7757610100808354040283529160200191610fa2565b820191906000526020600020905b815481529060010190602001808311610f8557829003601f168201915b5050505050815260200160008381548110610fc057610fbf6131f0565b5b90600052602060002090600702016005018054610fdc9061324e565b80601f01602080910402602001604051908101604052809291908181526020018280546110089061324e565b80156110555780601f1061102a57610100808354040283529160200191611055565b820191906000526020600020905b81548152906001019060200180831161103857829003601f168201915b5050505050815260200160008381548110611073576110726131f0565b5b906000526020600020906007020160060160009054906101000a900473ffffffffffffffffffffffffffffffffffffffff1673ffffffffffffffffffffffffffffffffffffffff168152602001600160008085815481106110d7576110d66131f0565b5b9060005260206000209060070201600001548152602001908152602001600020805480602002602001604051908101604052809291908181526020016000905b8282101561126d578382906000526020600020906002020160405180604001604052908160008201805461114a9061324e565b80601f01602080910402602001604051908101604052809291908181526020018280546111769061324e565b80156111c35780601f10611198576101008083540402835291602001916111c3565b820191906000526020600020905b8154815290600101906020018083116111a657829003601f168201915b505050505081526020016001820180546111dc9061324e565b80601f01602080910402602001604051908101604052809291908181526020018280546112089061324e565b80156112555780601f1061122a57610100808354040283529160200191611255565b820191906000526020600020905b81548152906001019060200180831161123857829003601f168201915b50505050508152505081526020019060010190611117565b505050508152509150506112cb565b8080611287906131a8565b915050610d2f565b506040517f08c379a00000000000000000000000000000000000000000000000000000000081526004016112c29061356f565b60405180910390fd5b92915050565b60606000805b60008054905081101561137e578373ffffffffffffffffffffffffffffffffffffffff166000828154811061130f5761130e6131f0565b5b906000526020600020906007020160060160009054906101000a900473ffffffffffffffffffffffffffffffffffffffff1673ffffffffffffffffffffffffffffffffffffffff160361136b578180611367906131a8565b9250505b8080611376906131a8565b9150506112d7565b5060008167ffffffffffffffff81111561139b5761139a6126c8565b5b6040519080825280602002602001820160405280156113d457816020015b6113c1612646565b8152602001906001900390816113b95790505b5090506000805b60008054905081101561192f578573ffffffffffffffffffffffffffffffffffffffff1660008281548110611413576114126131f0565b5b906000526020600020906007020160060160009054906101000a900473ffffffffffffffffffffffffffffffffffffffff1673ffffffffffffffffffffffffffffffffffffffff160361191c576040518060e001604052806000838154811061147f5761147e6131f0565b5b9060005260206000209060070201600001548152602001600083815481106114aa576114a96131f0565b5b9060005260206000209060070201600201548152602001600083815481106114d5576114d46131f0565b5b906000526020600020906007020160030180546114f19061324e565b80601f016020809104026020016040519081016040528092919081815260200182805461151d9061324e565b801561156a5780601f1061153f5761010080835404028352916020019161156a565b820191906000526020600020905b81548152906001019060200180831161154d57829003601f168201915b5050505050815260200160008381548110611588576115876131f0565b5b906000526020600020906007020160040180546115a49061324e565b80601f01602080910402602001604051908101604052809291908181526020018280546115d09061324e565b801561161d5780601f106115f25761010080835404028352916020019161161d565b820191906000526020600020905b81548152906001019060200180831161160057829003601f168201915b505050505081526020016000838154811061163b5761163a6131f0565b5b906000526020600020906007020160050180546116579061324e565b80601f01602080910402602001604051908101604052809291908181526020018280546116839061324e565b80156116d05780601f106116a5576101008083540402835291602001916116d0565b820191906000526020600020905b8154815290600101906020018083116116b357829003601f168201915b50505050508152602001600083815481106116ee576116ed6131f0565b5b906000526020600020906007020160060160009054906101000a900473ffffffffffffffffffffffffffffffffffffffff1673ffffffffffffffffffffffffffffffffffffffff16815260200160016000808581548110611752576117516131f0565b5b9060005260206000209060070201600001548152602001908152602001600020805480602002602001604051908101604052809291908181526020016000905b828210156118e857838290600052602060002090600202016040518060400160405290816000820180546117c59061324e565b80601f01602080910402602001604051908101604052809291908181526020018280546117f19061324e565b801561183e5780601f106118135761010080835404028352916020019161183e565b820191906000526020600020905b81548152906001019060200180831161182157829003601f168201915b505050505081526020016001820180546118579061324e565b80601f01602080910402602001604051908101604052809291908181526020018280546118839061324e565b80156118d05780601f106118a5576101008083540402835291602001916118d0565b820191906000526020600020905b8154815290600101906020018083116118b357829003601f168201915b50505050508152505081526020019060010190611792565b50505050815250838381518110611902576119016131f0565b5b60200260200101819052508180611918906131a8565b9250505b8080611927906131a8565b9150506113db565b50819350505050919050565b60606000805b600080549050811015611a2c57611a0560008281548110611965576119646131f0565b5b906000526020600020906007020160010180546119819061324e565b80601f01602080910402602001604051908101604052809291908181526020018280546119ad9061324e565b80156119fa5780601f106119cf576101008083540402835291602001916119fa565b820191906000526020600020905b8154815290600101906020018083116119dd57829003601f168201915b505050505085612569565b15611a19578180611a15906131a8565b9250505b8080611a24906131a8565b915050611941565b5060008167ffffffffffffffff811115611a4957611a486126c8565b5b604051908082528060200260200182016040528015611a8257816020015b611a6f612646565b815260200190600190039081611a675790505b5090506000805b60008054905081101561202157611b4d60008281548110611aad57611aac6131f0565b5b90600052602060002090600702016001018054611ac99061324e565b80601f0160208091040260200160405190810160405280929190818152602001828054611af59061324e565b8015611b425780601f10611b1757610100808354040283529160200191611b42565b820191906000526020600020905b815481529060010190602001808311611b2557829003601f168201915b505050505087612569565b1561200e576040518060e0016040528060008381548110611b7157611b706131f0565b5b906000526020600020906007020160000154815260200160008381548110611b9c57611b9b6131f0565b5b906000526020600020906007020160020154815260200160008381548110611bc757611bc66131f0565b5b90600052602060002090600702016003018054611be39061324e565b80601f0160208091040260200160405190810160405280929190818152602001828054611c0f9061324e565b8015611c5c5780601f10611c3157610100808354040283529160200191611c5c565b820191906000526020600020905b815481529060010190602001808311611c3f57829003601f168201915b5050505050815260200160008381548110611c7a57611c796131f0565b5b90600052602060002090600702016004018054611c969061324e565b80601f0160208091040260200160405190810160405280929190818152602001828054611cc29061324e565b8015611d0f5780601f10611ce457610100808354040283529160200191611d0f565b820191906000526020600020905b815481529060010190602001808311611cf257829003601f168201915b5050505050815260200160008381548110611d2d57611d2c6131f0565b5b90600052602060002090600702016005018054611d499061324e565b80601f0160208091040260200160405190810160405280929190818152602001828054611d759061324e565b8015611dc25780601f10611d9757610100808354040283529160200191611dc2565b820191906000526020600020905b815481529060010190602001808311611da557829003601f168201915b5050505050815260200160008381548110611de057611ddf6131f0565b5b906000526020600020906007020160060160009054906101000a900473ffffffffffffffffffffffffffffffffffffffff1673ffffffffffffffffffffffffffffffffffffffff16815260200160016000808581548110611e4457611e436131f0565b5b9060005260206000209060070201600001548152602001908152602001600020805480602002602001604051908101604052809291908181526020016000905b82821015611fda5783829060005260206000209060020201604051806040016040529081600082018054611eb79061324e565b80601f0160208091040260200160405190810160405280929190818152602001828054611ee39061324e565b8015611f305780601f10611f0557610100808354040283529160200191611f30565b820191906000526020600020905b815481529060010190602001808311611f1357829003601f168201915b50505050508152602001600182018054611f499061324e565b80601f0160208091040260200160405190810160405280929190818152602001828054611f759061324e565b8015611fc25780601f10611f9757610100808354040283529160200191611fc2565b820191906000526020600020905b815481529060010190602001808311611fa557829003601f168201915b50505050508152505081526020019060010190611e84565b50505050815250838381518110611ff457611ff36131f0565b5b6020026020010181905250818061200a906131a8565b9250505b8080612019906131a8565b915050611a89565b50819350505050919050565b60025481565b60606000808054905067ffffffffffffffff811115612055576120546126c8565b5b60405190808252806020026020018201604052801561208e57816020015b61207b612646565b8152602001906001900390816120735790505b50905060005b600080549050811015612561576040518060e00160405280600083815481106120c0576120bf6131f0565b5b9060005260206000209060070201600001548152602001600083815481106120eb576120ea6131f0565b5b906000526020600020906007020160020154815260200160008381548110612116576121156131f0565b5b906000526020600020906007020160030180546121329061324e565b80601f016020809104026020016040519081016040528092919081815260200182805461215e9061324e565b80156121ab5780601f10612180576101008083540402835291602001916121ab565b820191906000526020600020905b81548152906001019060200180831161218e57829003601f168201915b50505050508152602001600083815481106121c9576121c86131f0565b5b906000526020600020906007020160040180546121e59061324e565b80601f01602080910402602001604051908101604052809291908181526020018280546122119061324e565b801561225e5780601f106122335761010080835404028352916020019161225e565b820191906000526020600020905b81548152906001019060200180831161224157829003601f168201915b505050505081526020016000838154811061227c5761227b6131f0565b5b906000526020600020906007020160050180546122989061324e565b80601f01602080910402602001604051908101604052809291908181526020018280546122c49061324e565b80156123115780601f106122e657610100808354040283529160200191612311565b820191906000526020600020905b8154815290600101906020018083116122f457829003601f168201915b505050505081526020016000838154811061232f5761232e6131f0565b5b906000526020600020906007020160060160009054906101000a900473ffffffffffffffffffffffffffffffffffffffff1673ffffffffffffffffffffffffffffffffffffffff16815260200160016000808581548110612393576123926131f0565b5b9060005260206000209060070201600001548152602001908152602001600020805480602002602001604051908101604052809291908181526020016000905b8282101561252957838290600052602060002090600202016040518060400160405290816000820180546124069061324e565b80601f01602080910402602001604051908101604052809291908181526020018280546124329061324e565b801561247f5780601f106124545761010080835404028352916020019161247f565b820191906000526020600020905b81548152906001019060200180831161246257829003601f168201915b505050505081526020016001820180546124989061324e565b80601f01602080910402602001604051908101604052809291908181526020018280546124c49061324e565b80156125115780601f106124e657610100808354040283529160200191612511565b820191906000526020600020905b8154815290600101906020018083116124f457829003601f168201915b505050505081525050815260200190600101906123d3565b50505050815250828281518110612543576125426131f0565b5b60200260200101819052508080612559906131a8565b915050612094565b508091505090565b6000808390506000839050805182511461258857600092505050612640565b60005b8251811015612638578181815181106125a7576125a66131f0565b5b602001015160f81c60f81b7effffffffffffffffffffffffffffffffffffffffffffffffffffffffffffff19168382815181106125e7576125e66131f0565b5b602001015160f81c60f81b7effffffffffffffffffffffffffffffffffffffffffffffffffffffffffffff1916146126255760009350505050612640565b8080612630906131a8565b91505061258b565b506001925050505b92915050565b6040518060e001604052806000815260200160008152602001606081526020016060815260200160608152602001600073ffffffffffffffffffffffffffffffffffffffff168152602001606081525090565b6000604051905090565b600080fd5b600080fd5b600080fd5b600080fd5b6000601f19601f8301169050919050565b7f4e487b7100000000000000000000000000000000000000000000000000000000600052604160045260246000fd5b612700826126b7565b810181811067ffffffffffffffff8211171561271f5761271e6126c8565b5b80604052505050565b6000612732612699565b905061273e82826126f7565b919050565b600067ffffffffffffffff82111561275e5761275d6126c8565b5b612767826126b7565b9050602081019050919050565b82818337600083830152505050565b600061279661279184612743565b612728565b9050828152602081018484840111156127b2576127b16126b2565b5b6127bd848285612774565b509392505050565b600082601f8301126127da576127d96126ad565b5b81356127ea848260208601612783565b91505092915050565b600067ffffffffffffffff82111561280e5761280d6126c8565b5b602082029050602081019050919050565b600080fd5b600080fd5b600080fd5b60006040828403121561284457612843612824565b5b61284e6040612728565b9050600082013567ffffffffffffffff81111561286e5761286d612829565b5b61287a848285016127c5565b600083015250602082013567ffffffffffffffff81111561289e5761289d612829565b5b6128aa848285016127c5565b60208301525092915050565b60006128c96128c4846127f3565b612728565b905080838252602082019050602084028301858111156128ec576128eb61281f565b5b835b8181101561293357803567ffffffffffffffff811115612911576129106126ad565b5b80860161291e898261282e565b855260208501945050506020810190506128ee565b5050509392505050565b600082601f830112612952576129516126ad565b5b81356129628482602086016128b6565b91505092915050565b600080600080600060a08688031215612987576129866126a3565b5b600086013567ffffffffffffffff8111156129a5576129a46126a8565b5b6129b1888289016127c5565b955050602086013567ffffffffffffffff8111156129d2576129d16126a8565b5b6129de888289016127c5565b945050604086013567ffffffffffffffff8111156129ff576129fe6126a8565b5b612a0b888289016127c5565b935050606086013567ffffffffffffffff811115612a2c57612a2b6126a8565b5b612a38888289016127c5565b925050608086013567ffffffffffffffff811115612a5957612a586126a8565b5b612a658882890161293d565b9150509295509295909350565b6000819050919050565b612a8581612a72565b8114612a9057600080fd5b50565b600081359050612aa281612a7c565b92915050565b600060208284031215612abe57612abd6126a3565b5b6000612acc84828501612a93565b91505092915050565b612ade81612a72565b82525050565b600081519050919050565b600082825260208201905092915050565b60005b83811015612b1e578082015181840152602081019050612b03565b60008484015250505050565b6000612b3582612ae4565b612b3f8185612aef565b9350612b4f818560208601612b00565b612b58816126b7565b840191505092915050565b600073ffffffffffffffffffffffffffffffffffffffff82169050919050565b6000612b8e82612b63565b9050919050565b612b9e81612b83565b82525050565b600060e082019050612bb9600083018a612ad5565b8181036020830152612bcb8189612b2a565b9050612bda6040830188612ad5565b8181036060830152612bec8187612b2a565b90508181036080830152612c008186612b2a565b905081810360a0830152612c148185612b2a565b9050612c2360c0830184612b95565b98975050505050505050565b612c3881612a72565b82525050565b600082825260208201905092915050565b6000612c5a82612ae4565b612c648185612c3e565b9350612c74818560208601612b00565b612c7d816126b7565b840191505092915050565b612c9181612b83565b82525050565b600081519050919050565b600082825260208201905092915050565b6000819050602082019050919050565b60006040830160008301518482036000860152612ce08282612c4f565b91505060208301518482036020860152612cfa8282612c4f565b9150508091505092915050565b6000612d138383612cc3565b905092915050565b6000602082019050919050565b6000612d3382612c97565b612d3d8185612ca2565b935083602082028501612d4f85612cb3565b8060005b85811015612d8b5784840389528151612d6c8582612d07565b9450612d7783612d1b565b925060208a01995050600181019050612d53565b50829750879550505050505092915050565b600060e083016000830151612db56000860182612c2f565b506020830151612dc86020860182612c2f565b5060408301518482036040860152612de08282612c4f565b91505060608301518482036060860152612dfa8282612c4f565b91505060808301518482036080860152612e148282612c4f565b91505060a0830151612e2960a0860182612c88565b5060c083015184820360c0860152612e418282612d28565b9150508091505092915050565b60006020820190508181036000830152612e688184612d9d565b905092915050565b60008060408385031215612e8757612e866126a3565b5b6000612e9585828601612a93565b9250506020612ea685828601612a93565b9150509250929050565b60006040820190508181036000830152612eca8185612b2a565b90508181036020830152612ede8184612b2a565b90509392505050565b612ef081612b83565b8114612efb57600080fd5b50565b600081359050612f0d81612ee7565b92915050565b60008060408385031215612f2a57612f296126a3565b5b6000612f3885828601612a93565b9250506020612f4985828601612efe565b9150509250929050565b600060208284031215612f6957612f686126a3565b5b6000612f7784828501612efe565b91505092915050565b600081519050919050565b600082825260208201905092915050565b6000819050602082019050919050565b600060e083016000830151612fc46000860182612c2f565b506020830151612fd76020860182612c2f565b5060408301518482036040860152612fef8282612c4f565b915050606083015184820360608601526130098282612c4f565b915050608083015184820360808601526130238282612c4f565b91505060a083015161303860a0860182612c88565b5060c083015184820360c08601526130508282612d28565b9150508091505092915050565b60006130698383612fac565b905092915050565b6000602082019050919050565b600061308982612f80565b6130938185612f8b565b9350836020820285016130a585612f9c565b8060005b858110156130e157848403895281516130c2858261305d565b94506130cd83613071565b925060208a019950506001810190506130a9565b50829750879550505050505092915050565b6000602082019050818103600083015261310d818461307e565b905092915050565b60006020828403121561312b5761312a6126a3565b5b600082013567ffffffffffffffff811115613149576131486126a8565b5b613155848285016127c5565b91505092915050565b60006020820190506131736000830184612ad5565b92915050565b7f4e487b7100000000000000000000000000000000000000000000000000000000600052601160045260246000fd5b60006131b382612a72565b91507fffffffffffffffffffffffffffffffffffffffffffffffffffffffffffffffff82036131e5576131e4613179565b5b600182019050919050565b7f4e487b7100000000000000000000000000000000000000000000000000000000600052603260045260246000fd5b7f4e487b7100000000000000000000000000000000000000000000000000000000600052602260045260246000fd5b6000600282049050600182168061326657607f821691505b6020821081036132795761327861321f565b5b50919050565b60008190508160005260206000209050919050565b60006020601f8301049050919050565b600082821b905092915050565b6000600883026132e17fffffffffffffffffffffffffffffffffffffffffffffffffffffffffffffffff826132a4565b6132eb86836132a4565b95508019841693508086168417925050509392505050565b6000819050919050565b600061332861332361331e84612a72565b613303565b612a72565b9050919050565b6000819050919050565b6133428361330d565b61335661334e8261332f565b8484546132b1565b825550505050565b600090565b61336b61335e565b613376818484613339565b505050565b5b8181101561339a5761338f600082613363565b60018101905061337c565b5050565b601f8211156133df576133b08161327f565b6133b984613294565b810160208510156133c8578190505b6133dc6133d485613294565b83018261337b565b50505b505050565b600082821c905092915050565b6000613402600019846008026133e4565b1980831691505092915050565b600061341b83836133f1565b9150826002028217905092915050565b61343482612ae4565b67ffffffffffffffff81111561344d5761344c6126c8565b5b613457825461324e565b61346282828561339e565b600060209050601f8311600181146134955760008415613483578287015190505b61348d858261340f565b8655506134f5565b601f1984166134a38661327f565b60005b828110156134cb578489015182556001820191506020850194506020810190506134a6565b868310156134e857848901516134e4601f8916826133f1565b8355505b6001600288020188555050505b505050505050565b7f4e6f2070726f64756374696f6e20666f756e642077697468207468652067697660008201527f656e20696420616e642073656e64657200000000000000000000000000000000602082015250565b6000613559603083612aef565b9150613564826134fd565b604082019050919050565b600060208201905081810360008301526135888161354c565b905091905056fea2646970667358221220194c31c68ce98df1af101767897407c0281e4e9a3ef7c85779270a9f43cda3f964736f6c63430008130033",
  "immutableReferences": {},
  "source": "// SPDX-License-Identifier: MIT\r\npragma solidity >=0.8.19 <0.9.0;\r\n\r\ncontract ProductionStorage{\r\n    struct MinedPerGroup{\r\n        string groupName;\r\n        string oreMined;\r\n    }\r\n\r\n    struct Production {\r\n        uint256 id;\r\n        string email;\r\n        uint256 date;\r\n        string totalOreMined;\r\n        string month;\r\n        string year;\r\n        address sender;\r\n    }\r\n\r\n    Production[] public productions;\r\n    mapping(uint256 => MinedPerGroup[]) public productionGroups;\r\n    uint256 public idCounter;\r\n\r\n    struct ProductionDetails {\r\n        uint256 id;\r\n        uint256 date;\r\n        string totalOreMined;\r\n        string month;\r\n        string year;\r\n        address sender;\r\n        MinedPerGroup[] minedpergroups;\r\n    }\r\n\r\n\r\n   function addProduction(\r\n        string memory _email,\r\n        string memory _totalOreMined, \r\n        string memory _month,\r\n        string memory _year,\r\n        MinedPerGroup[] memory _minedPerGroup\r\n        ) public {\r\n        uint256 _id = ++idCounter;\r\n\r\n        // Copy the MinedPerGroup data from memory to storage\r\n        MinedPerGroup[] storage minedGroups = productionGroups[_id];\r\n        for (uint256 i = 0; i < _minedPerGroup.length; i++) {\r\n            minedGroups.push(_minedPerGroup[i]);\r\n        }\r\n\r\n        Production memory newProduction = Production({\r\n            id: _id,\r\n            date: block.timestamp,\r\n            email: _email,\r\n            totalOreMined: _totalOreMined,\r\n            month: _month,\r\n            year: _year,\r\n            sender: msg.sender\r\n        });\r\n\r\n        productions.push(newProduction);\r\n        }\r\n\r\n    function getAllProductions() public view returns (ProductionDetails[] memory) {\r\n        // Create an array to store all productions\r\n        ProductionDetails[] memory allProductions = new ProductionDetails[](productions.length);\r\n\r\n        // Populate the array with all productions\r\n        for (uint256 i = 0; i < productions.length; i++) {\r\n            allProductions[i] = ProductionDetails({\r\n                id: productions[i].id,\r\n                date: productions[i].date,\r\n                totalOreMined: productions[i].totalOreMined,\r\n                month: productions[i].month,\r\n                year: productions[i].year,\r\n                sender: productions[i].sender,\r\n                minedpergroups: productionGroups[productions[i].id]\r\n            });\r\n        }\r\n\r\n    return allProductions;\r\n}\r\n\r\n    function getProductionById(uint256 _id)\r\n        public\r\n        view\r\n        returns (ProductionDetails memory)\r\n    {\r\n        // Loop through all productions\r\n        for (uint256 i = 0; i < productions.length; i++) {\r\n            // Check if the id and sender match the provided id and sender\r\n            if (productions[i].id == _id) {\r\n                // Return the matching production\r\n                return ProductionDetails({\r\n                    id: productions[i].id,\r\n                    date: productions[i].date,\r\n                    totalOreMined: productions[i].totalOreMined,\r\n                    month: productions[i].month,\r\n                    year: productions[i].year,\r\n                    sender: productions[i].sender,\r\n                    minedpergroups: productionGroups[productions[i].id]\r\n                });\r\n            }\r\n        }\r\n\r\n        // If no matching production was found, revert the transaction\r\n        revert(\"No production found with the given id and sender\");\r\n    }\r\n\r\n\r\n    function getProductionsBySender(address _sender)\r\n        public\r\n        view\r\n        returns (ProductionDetails[] memory)\r\n    {\r\n        // Count the number of productions by the given sender\r\n        uint256 count = 0;\r\n        for (uint256 i = 0; i < productions.length; i++) {\r\n            if (productions[i].sender == _sender) {\r\n                count++;\r\n            }\r\n        }\r\n\r\n        // Create an array to store productions by the given sender\r\n        ProductionDetails[] memory senderProductions = new ProductionDetails[](count);\r\n\r\n        // Populate the array with productions by the given sender\r\n        uint256 index = 0;\r\n        for (uint256 i = 0; i < productions.length; i++) {\r\n            if (productions[i].sender == _sender) {\r\n                senderProductions[index] = ProductionDetails({\r\n                    id: productions[i].id,\r\n                    date: productions[i].date,\r\n                    totalOreMined: productions[i].totalOreMined,\r\n                    month: productions[i].month,\r\n                    year: productions[i].year,\r\n                    sender: productions[i].sender,\r\n                    minedpergroups: productionGroups[productions[i].id]\r\n                });\r\n                index++;\r\n            }\r\n        }\r\n\r\n        return senderProductions;\r\n    }\r\n\r\n\r\n    function getProductionByIdAndSender(uint256 _id, address _sender)\r\n        public\r\n        view\r\n        returns (ProductionDetails memory)\r\n    {\r\n        // Loop through all productions\r\n        for (uint256 i = 0; i < productions.length; i++) {\r\n            // Check if the id and sender match the provided id and sender\r\n            if (productions[i].id == _id && productions[i].sender == _sender) {\r\n                // Return the matching production\r\n                return ProductionDetails({\r\n                    id: productions[i].id,\r\n                    date: productions[i].date,\r\n                    totalOreMined: productions[i].totalOreMined,\r\n                    month: productions[i].month,\r\n                    year: productions[i].year,\r\n                    sender: productions[i].sender,\r\n                    minedpergroups: productionGroups[productions[i].id]\r\n                });\r\n            }\r\n        }\r\n\r\n        // If no matching production was found, revert the transaction\r\n        revert(\"No production found with the given id and sender\");\r\n    }\r\n\r\n    function stringsEqual(string memory _a, string memory _b) internal pure returns (bool) {\r\n        bytes memory a = bytes(_a);\r\n        bytes memory b = bytes(_b);\r\n            if (a.length != b.length) {\r\n                return false;\r\n            } else {\r\n                for (uint i = 0; i < a.length; i ++) {\r\n                    if (a[i] != b[i]) {\r\n                        return false;\r\n                    }\r\n                }\r\n                return true;\r\n            }\r\n    }\r\n\r\n    function getProductionsByEmail(string memory _email)   public\r\n        view\r\n        returns (ProductionDetails[] memory){\r\n            // Count the number of productions by the given sender\r\n        uint256 count = 0;\r\n        for (uint256 i = 0; i < productions.length; i++) {\r\n            if (stringsEqual(productions[i].email, _email)) {\r\n                count++;\r\n            }\r\n        }\r\n\r\n        // Create an array to store productions by the given sender\r\n        ProductionDetails[] memory productionsByEmail = new ProductionDetails[](count);\r\n\r\n\r\n        // Populate the array with productions by the given sender\r\n        uint256 index = 0;\r\n        for (uint256 i = 0; i < productions.length; i++) {\r\n            if (stringsEqual(productions[i].email, _email)) {\r\n                productionsByEmail[index] = ProductionDetails({\r\n                    id: productions[i].id,\r\n                    date: productions[i].date,\r\n                    totalOreMined: productions[i].totalOreMined,\r\n                    month: productions[i].month,\r\n                    year: productions[i].year,\r\n                    sender: productions[i].sender,\r\n                    minedpergroups: productionGroups[productions[i].id]\r\n                });\r\n                index++;\r\n            }\r\n        }\r\n\r\n        return productionsByEmail;\r\n    }\r\n\r\n\r\n\r\n}",
  "sourcePath": "C:\\Users\\franc\\OneDrive\\Documents\\BlockchainXMining\\contracts\\ProductionStorage.sol",
  "compiler": {
    "name": "solc",
    "version": "0.8.19+commit.7dd6d404.Emscripten.clang"
  },
  "schemaVersion": "3.4.16",
  "updatedAt": "2024-01-07T08:29:20.274Z",
  "networkType": "ethereum",
  "devdoc": {
    "kind": "dev",
    "methods": {},
    "version": 1
  },
  "userdoc": {
    "kind": "user",
    "methods": {},
    "version": 1
  }
}