{
  "contractName": "ProductionStorage",
  "abi": [
    {
      "inputs": [],
      "name": "idCounter",
      "outputs": [
        {
          "internalType": "uint256",
          "name": "",
          "type": "uint256"
        }
      ],
      "stateMutability": "view",
      "type": "function",
      "constant": true
    },
    {
      "inputs": [
        {
          "internalType": "uint256",
          "name": "",
          "type": "uint256"
        },
        {
          "internalType": "uint256",
          "name": "",
          "type": "uint256"
        }
      ],
      "name": "productionGroups",
      "outputs": [
        {
          "internalType": "string",
          "name": "groupName",
          "type": "string"
        },
        {
          "internalType": "string",
          "name": "oreMined",
          "type": "string"
        }
      ],
      "stateMutability": "view",
      "type": "function",
      "constant": true
    },
    {
      "inputs": [
        {
          "internalType": "uint256",
          "name": "",
          "type": "uint256"
        }
      ],
      "name": "productions",
      "outputs": [
        {
          "internalType": "uint256",
          "name": "id",
          "type": "uint256"
        },
        {
          "internalType": "string",
          "name": "email",
          "type": "string"
        },
        {
          "internalType": "uint256",
          "name": "date",
          "type": "uint256"
        },
        {
          "internalType": "string",
          "name": "totalOreMined",
          "type": "string"
        },
        {
          "internalType": "string",
          "name": "month",
          "type": "string"
        },
        {
          "internalType": "string",
          "name": "year",
          "type": "string"
        },
        {
          "internalType": "address",
          "name": "sender",
          "type": "address"
        }
      ],
      "stateMutability": "view",
      "type": "function",
      "constant": true
    },
    {
      "inputs": [
        {
          "internalType": "string",
          "name": "_email",
          "type": "string"
        },
        {
          "internalType": "string",
          "name": "_totalOreMined",
          "type": "string"
        },
        {
          "internalType": "string",
          "name": "_month",
          "type": "string"
        },
        {
          "internalType": "string",
          "name": "_year",
          "type": "string"
        },
        {
          "components": [
            {
              "internalType": "string",
              "name": "groupName",
              "type": "string"
            },
            {
              "internalType": "string",
              "name": "oreMined",
              "type": "string"
            }
          ],
          "internalType": "struct ProductionStorage.MinedPerGroup[]",
          "name": "_minedPerGroup",
          "type": "tuple[]"
        }
      ],
      "name": "addProduction",
      "outputs": [],
      "stateMutability": "nonpayable",
      "type": "function"
    },
    {
      "inputs": [
        {
          "internalType": "address",
          "name": "_sender",
          "type": "address"
        }
      ],
      "name": "getProductionsBySender",
      "outputs": [
        {
          "components": [
            {
              "internalType": "uint256",
              "name": "id",
              "type": "uint256"
            },
            {
              "internalType": "uint256",
              "name": "date",
              "type": "uint256"
            },
            {
              "internalType": "string",
              "name": "totalOreMined",
              "type": "string"
            },
            {
              "internalType": "string",
              "name": "month",
              "type": "string"
            },
            {
              "internalType": "string",
              "name": "year",
              "type": "string"
            },
            {
              "components": [
                {
                  "internalType": "string",
                  "name": "groupName",
                  "type": "string"
                },
                {
                  "internalType": "string",
                  "name": "oreMined",
                  "type": "string"
                }
              ],
              "internalType": "struct ProductionStorage.MinedPerGroup[]",
              "name": "minedpergroups",
              "type": "tuple[]"
            }
          ],
          "internalType": "struct ProductionStorage.ProductionDetails[]",
          "name": "",
          "type": "tuple[]"
        }
      ],
      "stateMutability": "view",
      "type": "function",
      "constant": true
    },
    {
      "inputs": [
        {
          "internalType": "uint256",
          "name": "_id",
          "type": "uint256"
        },
        {
          "internalType": "address",
          "name": "_sender",
          "type": "address"
        }
      ],
      "name": "getProductionByIdAndSender",
      "outputs": [
        {
          "components": [
            {
              "internalType": "uint256",
              "name": "id",
              "type": "uint256"
            },
            {
              "internalType": "uint256",
              "name": "date",
              "type": "uint256"
            },
            {
              "internalType": "string",
              "name": "totalOreMined",
              "type": "string"
            },
            {
              "internalType": "string",
              "name": "month",
              "type": "string"
            },
            {
              "internalType": "string",
              "name": "year",
              "type": "string"
            },
            {
              "components": [
                {
                  "internalType": "string",
                  "name": "groupName",
                  "type": "string"
                },
                {
                  "internalType": "string",
                  "name": "oreMined",
                  "type": "string"
                }
              ],
              "internalType": "struct ProductionStorage.MinedPerGroup[]",
              "name": "minedpergroups",
              "type": "tuple[]"
            }
          ],
          "internalType": "struct ProductionStorage.ProductionDetails",
          "name": "",
          "type": "tuple"
        }
      ],
      "stateMutability": "view",
      "type": "function",
      "constant": true
    },
    {
      "inputs": [
        {
          "internalType": "string",
          "name": "_email",
          "type": "string"
        }
      ],
      "name": "getProductionsByEmail",
      "outputs": [
        {
          "components": [
            {
              "internalType": "uint256",
              "name": "id",
              "type": "uint256"
            },
            {
              "internalType": "uint256",
              "name": "date",
              "type": "uint256"
            },
            {
              "internalType": "string",
              "name": "totalOreMined",
              "type": "string"
            },
            {
              "internalType": "string",
              "name": "month",
              "type": "string"
            },
            {
              "internalType": "string",
              "name": "year",
              "type": "string"
            },
            {
              "components": [
                {
                  "internalType": "string",
                  "name": "groupName",
                  "type": "string"
                },
                {
                  "internalType": "string",
                  "name": "oreMined",
                  "type": "string"
                }
              ],
              "internalType": "struct ProductionStorage.MinedPerGroup[]",
              "name": "minedpergroups",
              "type": "tuple[]"
            }
          ],
          "internalType": "struct ProductionStorage.ProductionDetails[]",
          "name": "",
          "type": "tuple[]"
        }
      ],
      "stateMutability": "view",
      "type": "function",
      "constant": true
    }
  ],
  "bytecode": "0x608060405234801561001057600080fd5b50612987806100206000396000f3fe608060405234801561001057600080fd5b506004361061007d5760003560e01c806383cd44921161005b57806383cd449214610105578063c26f2b4914610135578063e844b94e14610165578063eb08ab28146101955761007d565b80630503bd381461008257806315292f531461009e57806381f220e4146100d4575b600080fd5b61009c60048036038101906100979190611d62565b6101b3565b005b6100b860048036038101906100b39190611e9f565b6103ae565b6040516100cb9796959493929190611f9b565b60405180910390f35b6100ee60048036038101906100e99190612026565b610640565b6040516100fc929190612066565b60405180910390f35b61011f600480360381019061011a91906120c9565b610791565b60405161012c9190612306565b60405180910390f35b61014f600480360381019061014a9190612328565b610cdd565b60405161015c91906124b5565b60405180910390f35b61017f600480360381019061017a91906124d7565b6112e6565b60405161018c91906124b5565b60405180910390f35b61019d611977565b6040516101aa9190612520565b60405180910390f35b60006002600081546101c49061256a565b9190508190559050600060016000838152602001908152602001600020905060005b83518110156102755781848281518110610203576102026125b2565b5b60200260200101519080600181540180825580915050600190039060005260206000209060020201600090919091909150600082015181600001908161024991906127ed565b50602082015181600101908161025f91906127ed565b505050808061026d9061256a565b9150506101e6565b5060006040518060e001604052808481526020018981526020014281526020018881526020018781526020018681526020013373ffffffffffffffffffffffffffffffffffffffff168152509050600081908060018154018082558091505060019003906000526020600020906007020160009091909190915060008201518160000155602082015181600101908161030e91906127ed565b5060408201518160020155606082015181600301908161032e91906127ed565b50608082015181600401908161034491906127ed565b5060a082015181600501908161035a91906127ed565b5060c08201518160060160006101000a81548173ffffffffffffffffffffffffffffffffffffffff021916908373ffffffffffffffffffffffffffffffffffffffff16021790555050505050505050505050565b600081815481106103be57600080fd5b90600052602060002090600702016000915090508060000154908060010180546103e790612610565b80601f016020809104026020016040519081016040528092919081815260200182805461041390612610565b80156104605780601f1061043557610100808354040283529160200191610460565b820191906000526020600020905b81548152906001019060200180831161044357829003601f168201915b50505050509080600201549080600301805461047b90612610565b80601f01602080910402602001604051908101604052809291908181526020018280546104a790612610565b80156104f45780601f106104c9576101008083540402835291602001916104f4565b820191906000526020600020905b8154815290600101906020018083116104d757829003601f168201915b50505050509080600401805461050990612610565b80601f016020809104026020016040519081016040528092919081815260200182805461053590612610565b80156105825780601f1061055757610100808354040283529160200191610582565b820191906000526020600020905b81548152906001019060200180831161056557829003601f168201915b50505050509080600501805461059790612610565b80601f01602080910402602001604051908101604052809291908181526020018280546105c390612610565b80156106105780601f106105e557610100808354040283529160200191610610565b820191906000526020600020905b8154815290600101906020018083116105f357829003601f168201915b5050505050908060060160009054906101000a900473ffffffffffffffffffffffffffffffffffffffff16905087565b6001602052816000526040600020818154811061065c57600080fd5b90600052602060002090600202016000915091505080600001805461068090612610565b80601f01602080910402602001604051908101604052809291908181526020018280546106ac90612610565b80156106f95780601f106106ce576101008083540402835291602001916106f9565b820191906000526020600020905b8154815290600101906020018083116106dc57829003601f168201915b50505050509080600101805461070e90612610565b80601f016020809104026020016040519081016040528092919081815260200182805461073a90612610565b80156107875780601f1061075c57610100808354040283529160200191610787565b820191906000526020600020905b81548152906001019060200180831161076a57829003601f168201915b5050505050905082565b610799611a5a565b60005b600080549050811015610c9b5783600082815481106107be576107bd6125b2565b5b90600052602060002090600702016000015414801561084d57508273ffffffffffffffffffffffffffffffffffffffff1660008281548110610803576108026125b2565b5b906000526020600020906007020160060160009054906101000a900473ffffffffffffffffffffffffffffffffffffffff1673ffffffffffffffffffffffffffffffffffffffff16145b15610c88576040518060c0016040528060008381548110610871576108706125b2565b5b90600052602060002090600702016000015481526020016000838154811061089c5761089b6125b2565b5b9060005260206000209060070201600201548152602001600083815481106108c7576108c66125b2565b5b906000526020600020906007020160030180546108e390612610565b80601f016020809104026020016040519081016040528092919081815260200182805461090f90612610565b801561095c5780601f106109315761010080835404028352916020019161095c565b820191906000526020600020905b81548152906001019060200180831161093f57829003601f168201915b505050505081526020016000838154811061097a576109796125b2565b5b9060005260206000209060070201600401805461099690612610565b80601f01602080910402602001604051908101604052809291908181526020018280546109c290612610565b8015610a0f5780601f106109e457610100808354040283529160200191610a0f565b820191906000526020600020905b8154815290600101906020018083116109f257829003601f168201915b5050505050815260200160008381548110610a2d57610a2c6125b2565b5b90600052602060002090600702016005018054610a4990612610565b80601f0160208091040260200160405190810160405280929190818152602001828054610a7590612610565b8015610ac25780601f10610a9757610100808354040283529160200191610ac2565b820191906000526020600020905b815481529060010190602001808311610aa557829003601f168201915b5050505050815260200160016000808581548110610ae357610ae26125b2565b5b9060005260206000209060070201600001548152602001908152602001600020805480602002602001604051908101604052809291908181526020016000905b82821015610c795783829060005260206000209060020201604051806040016040529081600082018054610b5690612610565b80601f0160208091040260200160405190810160405280929190818152602001828054610b8290612610565b8015610bcf5780601f10610ba457610100808354040283529160200191610bcf565b820191906000526020600020905b815481529060010190602001808311610bb257829003601f168201915b50505050508152602001600182018054610be890612610565b80601f0160208091040260200160405190810160405280929190818152602001828054610c1490612610565b8015610c615780601f10610c3657610100808354040283529160200191610c61565b820191906000526020600020905b815481529060010190602001808311610c4457829003601f168201915b50505050508152505081526020019060010190610b23565b50505050815250915050610cd7565b8080610c939061256a565b91505061079c565b506040517f08c379a0000000000000000000000000000000000000000000000000000000008152600401610cce90612931565b60405180910390fd5b92915050565b60606000805b600080549050811015610d8a578373ffffffffffffffffffffffffffffffffffffffff1660008281548110610d1b57610d1a6125b2565b5b906000526020600020906007020160060160009054906101000a900473ffffffffffffffffffffffffffffffffffffffff1673ffffffffffffffffffffffffffffffffffffffff1603610d77578180610d739061256a565b9250505b8080610d829061256a565b915050610ce3565b5060008167ffffffffffffffff811115610da757610da6611abf565b5b604051908082528060200260200182016040528015610de057816020015b610dcd611a5a565b815260200190600190039081610dc55790505b5090506000805b6000805490508110156112da578573ffffffffffffffffffffffffffffffffffffffff1660008281548110610e1f57610e1e6125b2565b5b906000526020600020906007020160060160009054906101000a900473ffffffffffffffffffffffffffffffffffffffff1673ffffffffffffffffffffffffffffffffffffffff16036112c7576040518060c0016040528060008381548110610e8b57610e8a6125b2565b5b906000526020600020906007020160000154815260200160008381548110610eb657610eb56125b2565b5b906000526020600020906007020160020154815260200160008381548110610ee157610ee06125b2565b5b90600052602060002090600702016003018054610efd90612610565b80601f0160208091040260200160405190810160405280929190818152602001828054610f2990612610565b8015610f765780601f10610f4b57610100808354040283529160200191610f76565b820191906000526020600020905b815481529060010190602001808311610f5957829003601f168201915b5050505050815260200160008381548110610f9457610f936125b2565b5b90600052602060002090600702016004018054610fb090612610565b80601f0160208091040260200160405190810160405280929190818152602001828054610fdc90612610565b80156110295780601f10610ffe57610100808354040283529160200191611029565b820191906000526020600020905b81548152906001019060200180831161100c57829003601f168201915b5050505050815260200160008381548110611047576110466125b2565b5b9060005260206000209060070201600501805461106390612610565b80601f016020809104026020016040519081016040528092919081815260200182805461108f90612610565b80156110dc5780601f106110b1576101008083540402835291602001916110dc565b820191906000526020600020905b8154815290600101906020018083116110bf57829003601f168201915b50505050508152602001600160008085815481106110fd576110fc6125b2565b5b9060005260206000209060070201600001548152602001908152602001600020805480602002602001604051908101604052809291908181526020016000905b82821015611293578382906000526020600020906002020160405180604001604052908160008201805461117090612610565b80601f016020809104026020016040519081016040528092919081815260200182805461119c90612610565b80156111e95780601f106111be576101008083540402835291602001916111e9565b820191906000526020600020905b8154815290600101906020018083116111cc57829003601f168201915b5050505050815260200160018201805461120290612610565b80601f016020809104026020016040519081016040528092919081815260200182805461122e90612610565b801561127b5780601f106112505761010080835404028352916020019161127b565b820191906000526020600020905b81548152906001019060200180831161125e57829003601f168201915b5050505050815250508152602001906001019061113d565b505050508152508383815181106112ad576112ac6125b2565b5b602002602001018190525081806112c39061256a565b9250505b80806112d29061256a565b915050610de7565b50819350505050919050565b60606000805b6000805490508110156113d7576113b0600082815481106113105761130f6125b2565b5b9060005260206000209060070201600101805461132c90612610565b80601f016020809104026020016040519081016040528092919081815260200182805461135890612610565b80156113a55780601f1061137a576101008083540402835291602001916113a5565b820191906000526020600020905b81548152906001019060200180831161138857829003601f168201915b50505050508561197d565b156113c45781806113c09061256a565b9250505b80806113cf9061256a565b9150506112ec565b5060008167ffffffffffffffff8111156113f4576113f3611abf565b5b60405190808252806020026020018201604052801561142d57816020015b61141a611a5a565b8152602001906001900390816114125790505b5090506000805b60008054905081101561196b576114f860008281548110611458576114576125b2565b5b9060005260206000209060070201600101805461147490612610565b80601f01602080910402602001604051908101604052809291908181526020018280546114a090612610565b80156114ed5780601f106114c2576101008083540402835291602001916114ed565b820191906000526020600020905b8154815290600101906020018083116114d057829003601f168201915b50505050508761197d565b15611958576040518060c001604052806000838154811061151c5761151b6125b2565b5b906000526020600020906007020160000154815260200160008381548110611547576115466125b2565b5b906000526020600020906007020160020154815260200160008381548110611572576115716125b2565b5b9060005260206000209060070201600301805461158e90612610565b80601f01602080910402602001604051908101604052809291908181526020018280546115ba90612610565b80156116075780601f106115dc57610100808354040283529160200191611607565b820191906000526020600020905b8154815290600101906020018083116115ea57829003601f168201915b5050505050815260200160008381548110611625576116246125b2565b5b9060005260206000209060070201600401805461164190612610565b80601f016020809104026020016040519081016040528092919081815260200182805461166d90612610565b80156116ba5780601f1061168f576101008083540402835291602001916116ba565b820191906000526020600020905b81548152906001019060200180831161169d57829003601f168201915b50505050508152602001600083815481106116d8576116d76125b2565b5b906000526020600020906007020160050180546116f490612610565b80601f016020809104026020016040519081016040528092919081815260200182805461172090612610565b801561176d5780601f106117425761010080835404028352916020019161176d565b820191906000526020600020905b81548152906001019060200180831161175057829003601f168201915b505050505081526020016001600080858154811061178e5761178d6125b2565b5b9060005260206000209060070201600001548152602001908152602001600020805480602002602001604051908101604052809291908181526020016000905b82821015611924578382906000526020600020906002020160405180604001604052908160008201805461180190612610565b80601f016020809104026020016040519081016040528092919081815260200182805461182d90612610565b801561187a5780601f1061184f5761010080835404028352916020019161187a565b820191906000526020600020905b81548152906001019060200180831161185d57829003601f168201915b5050505050815260200160018201805461189390612610565b80601f01602080910402602001604051908101604052809291908181526020018280546118bf90612610565b801561190c5780601f106118e15761010080835404028352916020019161190c565b820191906000526020600020905b8154815290600101906020018083116118ef57829003601f168201915b505050505081525050815260200190600101906117ce565b5050505081525083838151811061193e5761193d6125b2565b5b602002602001018190525081806119549061256a565b9250505b80806119639061256a565b915050611434565b50819350505050919050565b60025481565b6000808390506000839050805182511461199c57600092505050611a54565b60005b8251811015611a4c578181815181106119bb576119ba6125b2565b5b602001015160f81c60f81b7effffffffffffffffffffffffffffffffffffffffffffffffffffffffffffff19168382815181106119fb576119fa6125b2565b5b602001015160f81c60f81b7effffffffffffffffffffffffffffffffffffffffffffffffffffffffffffff191614611a395760009350505050611a54565b8080611a449061256a565b91505061199f565b506001925050505b92915050565b6040518060c001604052806000815260200160008152602001606081526020016060815260200160608152602001606081525090565b6000604051905090565b600080fd5b600080fd5b600080fd5b600080fd5b6000601f19601f8301169050919050565b7f4e487b7100000000000000000000000000000000000000000000000000000000600052604160045260246000fd5b611af782611aae565b810181811067ffffffffffffffff82111715611b1657611b15611abf565b5b80604052505050565b6000611b29611a90565b9050611b358282611aee565b919050565b600067ffffffffffffffff821115611b5557611b54611abf565b5b611b5e82611aae565b9050602081019050919050565b82818337600083830152505050565b6000611b8d611b8884611b3a565b611b1f565b905082815260208101848484011115611ba957611ba8611aa9565b5b611bb4848285611b6b565b509392505050565b600082601f830112611bd157611bd0611aa4565b5b8135611be1848260208601611b7a565b91505092915050565b600067ffffffffffffffff821115611c0557611c04611abf565b5b602082029050602081019050919050565b600080fd5b600080fd5b600080fd5b600060408284031215611c3b57611c3a611c1b565b5b611c456040611b1f565b9050600082013567ffffffffffffffff811115611c6557611c64611c20565b5b611c7184828501611bbc565b600083015250602082013567ffffffffffffffff811115611c9557611c94611c20565b5b611ca184828501611bbc565b60208301525092915050565b6000611cc0611cbb84611bea565b611b1f565b90508083825260208201905060208402830185811115611ce357611ce2611c16565b5b835b81811015611d2a57803567ffffffffffffffff811115611d0857611d07611aa4565b5b808601611d158982611c25565b85526020850194505050602081019050611ce5565b5050509392505050565b600082601f830112611d4957611d48611aa4565b5b8135611d59848260208601611cad565b91505092915050565b600080600080600060a08688031215611d7e57611d7d611a9a565b5b600086013567ffffffffffffffff811115611d9c57611d9b611a9f565b5b611da888828901611bbc565b955050602086013567ffffffffffffffff811115611dc957611dc8611a9f565b5b611dd588828901611bbc565b945050604086013567ffffffffffffffff811115611df657611df5611a9f565b5b611e0288828901611bbc565b935050606086013567ffffffffffffffff811115611e2357611e22611a9f565b5b611e2f88828901611bbc565b925050608086013567ffffffffffffffff811115611e5057611e4f611a9f565b5b611e5c88828901611d34565b9150509295509295909350565b6000819050919050565b611e7c81611e69565b8114611e8757600080fd5b50565b600081359050611e9981611e73565b92915050565b600060208284031215611eb557611eb4611a9a565b5b6000611ec384828501611e8a565b91505092915050565b611ed581611e69565b82525050565b600081519050919050565b600082825260208201905092915050565b60005b83811015611f15578082015181840152602081019050611efa565b60008484015250505050565b6000611f2c82611edb565b611f368185611ee6565b9350611f46818560208601611ef7565b611f4f81611aae565b840191505092915050565b600073ffffffffffffffffffffffffffffffffffffffff82169050919050565b6000611f8582611f5a565b9050919050565b611f9581611f7a565b82525050565b600060e082019050611fb0600083018a611ecc565b8181036020830152611fc28189611f21565b9050611fd16040830188611ecc565b8181036060830152611fe38187611f21565b90508181036080830152611ff78186611f21565b905081810360a083015261200b8185611f21565b905061201a60c0830184611f8c565b98975050505050505050565b6000806040838503121561203d5761203c611a9a565b5b600061204b85828601611e8a565b925050602061205c85828601611e8a565b9150509250929050565b600060408201905081810360008301526120808185611f21565b905081810360208301526120948184611f21565b90509392505050565b6120a681611f7a565b81146120b157600080fd5b50565b6000813590506120c38161209d565b92915050565b600080604083850312156120e0576120df611a9a565b5b60006120ee85828601611e8a565b92505060206120ff858286016120b4565b9150509250929050565b61211281611e69565b82525050565b600082825260208201905092915050565b600061213482611edb565b61213e8185612118565b935061214e818560208601611ef7565b61215781611aae565b840191505092915050565b600081519050919050565b600082825260208201905092915050565b6000819050602082019050919050565b600060408301600083015184820360008601526121ab8282612129565b915050602083015184820360208601526121c58282612129565b9150508091505092915050565b60006121de838361218e565b905092915050565b6000602082019050919050565b60006121fe82612162565b612208818561216d565b93508360208202850161221a8561217e565b8060005b85811015612256578484038952815161223785826121d2565b9450612242836121e6565b925060208a0199505060018101905061221e565b50829750879550505050505092915050565b600060c0830160008301516122806000860182612109565b5060208301516122936020860182612109565b50604083015184820360408601526122ab8282612129565b915050606083015184820360608601526122c58282612129565b915050608083015184820360808601526122df8282612129565b91505060a083015184820360a08601526122f982826121f3565b9150508091505092915050565b600060208201905081810360008301526123208184612268565b905092915050565b60006020828403121561233e5761233d611a9a565b5b600061234c848285016120b4565b91505092915050565b600081519050919050565b600082825260208201905092915050565b6000819050602082019050919050565b600060c0830160008301516123996000860182612109565b5060208301516123ac6020860182612109565b50604083015184820360408601526123c48282612129565b915050606083015184820360608601526123de8282612129565b915050608083015184820360808601526123f88282612129565b91505060a083015184820360a086015261241282826121f3565b9150508091505092915050565b600061242b8383612381565b905092915050565b6000602082019050919050565b600061244b82612355565b6124558185612360565b93508360208202850161246785612371565b8060005b858110156124a35784840389528151612484858261241f565b945061248f83612433565b925060208a0199505060018101905061246b565b50829750879550505050505092915050565b600060208201905081810360008301526124cf8184612440565b905092915050565b6000602082840312156124ed576124ec611a9a565b5b600082013567ffffffffffffffff81111561250b5761250a611a9f565b5b61251784828501611bbc565b91505092915050565b60006020820190506125356000830184611ecc565b92915050565b7f4e487b7100000000000000000000000000000000000000000000000000000000600052601160045260246000fd5b600061257582611e69565b91507fffffffffffffffffffffffffffffffffffffffffffffffffffffffffffffffff82036125a7576125a661253b565b5b600182019050919050565b7f4e487b7100000000000000000000000000000000000000000000000000000000600052603260045260246000fd5b7f4e487b7100000000000000000000000000000000000000000000000000000000600052602260045260246000fd5b6000600282049050600182168061262857607f821691505b60208210810361263b5761263a6125e1565b5b50919050565b60008190508160005260206000209050919050565b60006020601f8301049050919050565b600082821b905092915050565b6000600883026126a37fffffffffffffffffffffffffffffffffffffffffffffffffffffffffffffffff82612666565b6126ad8683612666565b95508019841693508086168417925050509392505050565b6000819050919050565b60006126ea6126e56126e084611e69565b6126c5565b611e69565b9050919050565b6000819050919050565b612704836126cf565b612718612710826126f1565b848454612673565b825550505050565b600090565b61272d612720565b6127388184846126fb565b505050565b5b8181101561275c57612751600082612725565b60018101905061273e565b5050565b601f8211156127a15761277281612641565b61277b84612656565b8101602085101561278a578190505b61279e61279685612656565b83018261273d565b50505b505050565b600082821c905092915050565b60006127c4600019846008026127a6565b1980831691505092915050565b60006127dd83836127b3565b9150826002028217905092915050565b6127f682611edb565b67ffffffffffffffff81111561280f5761280e611abf565b5b6128198254612610565b612824828285612760565b600060209050601f8311600181146128575760008415612845578287015190505b61284f85826127d1565b8655506128b7565b601f19841661286586612641565b60005b8281101561288d57848901518255600182019150602085019450602081019050612868565b868310156128aa57848901516128a6601f8916826127b3565b8355505b6001600288020188555050505b505050505050565b7f4e6f2070726f64756374696f6e20666f756e642077697468207468652067697660008201527f656e20696420616e642073656e64657200000000000000000000000000000000602082015250565b600061291b603083611ee6565b9150612926826128bf565b604082019050919050565b6000602082019050818103600083015261294a8161290e565b905091905056fea2646970667358221220f3255ce4c5ff5dd73ee0c24f776963a3140d595f277eb4bbb573085a8a49e21864736f6c63430008130033",
  "immutableReferences": {},
  "source": "// SPDX-License-Identifier: MIT\r\npragma solidity >=0.8.19 <0.9.0;\r\n\r\ncontract ProductionStorage{\r\n    struct MinedPerGroup{\r\n        string groupName;\r\n        string oreMined;\r\n    }\r\n\r\n    struct Production {\r\n        uint256 id;\r\n        string email;\r\n        uint256 date;\r\n        string totalOreMined;\r\n        string month;\r\n        string year;\r\n        address sender;\r\n    }\r\n\r\n    Production[] public productions;\r\n    mapping(uint256 => MinedPerGroup[]) public productionGroups;\r\n    uint256 public idCounter;\r\n\r\n    struct ProductionDetails {\r\n        uint256 id;\r\n        uint256 date;\r\n        string totalOreMined;\r\n        string month;\r\n        string year;\r\n        MinedPerGroup[] minedpergroups;\r\n    }\r\n\r\n\r\n   function addProduction(\r\n        string memory _email,\r\n        string memory _totalOreMined, \r\n        string memory _month,\r\n        string memory _year,\r\n        MinedPerGroup[] memory _minedPerGroup\r\n        ) public {\r\n        uint256 _id = ++idCounter;\r\n\r\n        // Copy the MinedPerGroup data from memory to storage\r\n        MinedPerGroup[] storage minedGroups = productionGroups[_id];\r\n        for (uint256 i = 0; i < _minedPerGroup.length; i++) {\r\n            minedGroups.push(_minedPerGroup[i]);\r\n        }\r\n\r\n        Production memory newProduction = Production({\r\n            id: _id,\r\n            date: block.timestamp,\r\n            email: _email,\r\n            totalOreMined: _totalOreMined,\r\n            month: _month,\r\n            year: _year,\r\n            sender: msg.sender\r\n        });\r\n\r\n        productions.push(newProduction);\r\n        }\r\n\r\n\r\n\r\n    function getProductionsBySender(address _sender)\r\n        public\r\n        view\r\n        returns (ProductionDetails[] memory)\r\n    {\r\n        // Count the number of productions by the given sender\r\n        uint256 count = 0;\r\n        for (uint256 i = 0; i < productions.length; i++) {\r\n            if (productions[i].sender == _sender) {\r\n                count++;\r\n            }\r\n        }\r\n\r\n        // Create an array to store productions by the given sender\r\n        ProductionDetails[] memory senderProductions = new ProductionDetails[](count);\r\n\r\n        // Populate the array with productions by the given sender\r\n        uint256 index = 0;\r\n        for (uint256 i = 0; i < productions.length; i++) {\r\n            if (productions[i].sender == _sender) {\r\n                senderProductions[index] = ProductionDetails({\r\n                    id: productions[i].id,\r\n                    date: productions[i].date,\r\n                    totalOreMined: productions[i].totalOreMined,\r\n                    month: productions[i].month,\r\n                    year: productions[i].year,\r\n                    minedpergroups: productionGroups[productions[i].id]\r\n                });\r\n                index++;\r\n            }\r\n        }\r\n\r\n        return senderProductions;\r\n    }\r\n\r\n\r\n    function getProductionByIdAndSender(uint256 _id, address _sender)\r\n        public\r\n        view\r\n        returns (ProductionDetails memory)\r\n    {\r\n        // Loop through all productions\r\n        for (uint256 i = 0; i < productions.length; i++) {\r\n            // Check if the id and sender match the provided id and sender\r\n            if (productions[i].id == _id && productions[i].sender == _sender) {\r\n                // Return the matching production\r\n                return ProductionDetails({\r\n                    id: productions[i].id,\r\n                    date: productions[i].date,\r\n                    totalOreMined: productions[i].totalOreMined,\r\n                    month: productions[i].month,\r\n                    year: productions[i].year,\r\n                    minedpergroups: productionGroups[productions[i].id]\r\n                });\r\n            }\r\n        }\r\n\r\n        // If no matching production was found, revert the transaction\r\n        revert(\"No production found with the given id and sender\");\r\n    }\r\n\r\n    function stringsEqual(string memory _a, string memory _b) internal pure returns (bool) {\r\n        bytes memory a = bytes(_a);\r\n        bytes memory b = bytes(_b);\r\n            if (a.length != b.length) {\r\n                return false;\r\n            } else {\r\n                for (uint i = 0; i < a.length; i ++) {\r\n                    if (a[i] != b[i]) {\r\n                        return false;\r\n                    }\r\n                }\r\n                return true;\r\n            }\r\n    }\r\n\r\n    function getProductionsByEmail(string memory _email)   public\r\n        view\r\n        returns (ProductionDetails[] memory){\r\n            // Count the number of productions by the given sender\r\n        uint256 count = 0;\r\n        for (uint256 i = 0; i < productions.length; i++) {\r\n            if (stringsEqual(productions[i].email, _email)) {\r\n                count++;\r\n            }\r\n        }\r\n\r\n        // Create an array to store productions by the given sender\r\n        ProductionDetails[] memory productionsByEmail = new ProductionDetails[](count);\r\n\r\n\r\n        // Populate the array with productions by the given sender\r\n        uint256 index = 0;\r\n        for (uint256 i = 0; i < productions.length; i++) {\r\n            if (stringsEqual(productions[i].email, _email)) {\r\n                productionsByEmail[index] = ProductionDetails({\r\n                    id: productions[i].id,\r\n                    date: productions[i].date,\r\n                    totalOreMined: productions[i].totalOreMined,\r\n                    month: productions[i].month,\r\n                    year: productions[i].year,\r\n                    minedpergroups: productionGroups[productions[i].id]\r\n                });\r\n                index++;\r\n            }\r\n        }\r\n\r\n        return productionsByEmail;\r\n    }\r\n\r\n\r\n\r\n}",
  "sourcePath": "C:\\Users\\franc\\OneDrive\\Documents\\BlockchainXMining\\contracts\\ProductionStorage.sol",
  "compiler": {
    "name": "solc",
    "version": "0.8.19+commit.7dd6d404.Emscripten.clang"
  },
  "schemaVersion": "3.4.16",
  "updatedAt": "2024-01-04T07:57:54.349Z",
  "networkType": "ethereum",
  "devdoc": {
    "kind": "dev",
    "methods": {},
    "version": 1
  },
  "userdoc": {
    "kind": "user",
    "methods": {},
    "version": 1
  }
}